:020000040800F2
:10000000000008242D0A0008950900089709000837
:10001000990900089B0900089D09000800000000DC
:100020000000000000000000000000009F09000820
:10003000A109000800000000A3090008A5090008A4
:100040007D0A00087D0A00087D0A00087D0A000874
:100050007D0A00087D0A00087D0A00087D0A000864
:100060007D0A00087D0A00087D0A00087D0A000854
:100070007D0A00087D0A00087D0A00087D0A000844
:100080007D0A00087D0A00087D0A00087D0A000834
:100090007D0A00087D0A00087D0A00087D0A000824
:1000A0007D0A00087D0A00087D0A00087D0A000814
:1000B0007D0A00087D0A00087D0A00087D0A000804
:1000C0007D0A00087D0A00087D0A00087D0A0008F4
:1000D0007D0A00087D0A00087D0A00087D0A0008E4
:1000E0007D0A00087D0A0008000000007D0A000863
:1000F0007D0A00087D0A00087D0A00087D0A0008C4
:100100007D0A00087D0A00087D0A00087D0A0008B3
:100110007D0A00087D0A00087D0A00087D0A0008A3
:100120007D0A00087D0A00087D0A00087D0A000893
:100130007D0A00087D0A00087D0A00087D0A000883
:1001400000000000000000000000000000000000AF
:100150007D0A00087D0A00087D0A00087D0A000863
:100160007D0A00087D0A00087D0A00087D0A000853
:100170007D0A00087D0A00087D0A00087D0A000843
:100180007D0A00087D0A00087D0A00087D0A000833
:100190007D0A00087D0A00087D0A00087D0A000823
:1001A0007D0A00087D0A00087D0A00087D0A000813
:1001B0007D0A00087D0A00087D0A00087D0A000803
:1001C0007D0A00087D0A00087D0A00087D0A0008F3
:1001D0007D0A00087D0A00087D0A00087D0A0008E3
:1001E0007D0A00087D0A00087D0A00087D0A0008D3
:1001F0007D0A00087D0A00087D0A00087D0A0008C3
:100200007D0A00087D0A00087D0A00087D0A0008B2
:100210007D0A00087D0A00087D0A00087D0A0008A2
:100220007D0A00087D0A00087D0A00080000000021
:100230007D0A00087D0A0008000000007D0A000811
:100240007D0A00087D0A00087D0A00087D0A000872
:100250007D0A00087D0A00087D0A00087D0A000862
:100260007D0A00087D0A00087D0A00087D0A000852
:100270007D0A00087D0A00087D0A000800000000D1
:100280007D0A00087D0A00087D0A000800000000C1
:08029000000000007D0A0008D7
:1002980010B5054C237833B9044B13B10448AFF3B8
:1002A80000800123237010BD10000024000000000E
:1002B800A01D000808B5034B1BB103490348AFF361
:1002C800008008BD0000000014000024A01D0008E4
:1002D800794B5A6912F4003280B59CB011D1BFF342
:1002E8004F8FBFF36F8FC3F85022BFF34F8FBFF309
:1002F8006F8F5A6942F400325A61BFF34F8FBFF3D0
:100308006F8F6D4A536913F4803323D1C2F8843058
:10031800BFF34F8FD2F8803043F6E074C3F3C900BF
:10032800C3F34E335B0103EA0406014646EA8175CE
:100338000139C2F86052F9D2203B13F1200FF2D1F3
:10034800BFF34F8F536943F480335361BFF34F8F2B
:10035800BFF36F8F00F0B6FB022000F093FD00237F
:100368000093564BDA6A22F00102DA62DB6A03F084
:1003780001030093524B9A6942F440429A619A6988
:1003880002F440420092009A9A699204FCD5002334
:10039800022201274FF480364FF0050EA0210425D4
:1003A800082409A80C9310931B931692189217957A
:1003B8001A931994CDE90976CDE91222CDE914E111
:1003C80001F052F800B1FEE703234FF03F0C4FF461
:1003D80080622946CDE901C34023CDE9030401A881
:1003E800CDE90533CDE9072301F08CFB00B1FEE729
:1003F80000F0D2F9044600B1FEE700F00FFC48F225
:100408001F7240F2011309A8ADF824700A94CDE9CF
:100418000B2300F021FC40F201234FF0104109A802
:10042800ADF82430274B0C96CDE90A1300F014FCE4
:10043800284600F001FCBFF34F8FBFF36F8F1E4AB1
:10044800536923F400335361C2F85042BFF34F8F0E
:10045800BFF36F8FC2F88440BFF34F8F536923F403
:1004680080335361BFF34F8FD2F8803043F6E07486
:10047800C3F3C900C3F34E335B0103EA0406014624
:1004880046EA81750139C2F87452F9D2203B13F15A
:10049800200FF2D1BFF34F8FBFF36F8F4FF0E023E0
:1004A800002209491A614FF01042536812680B6024
:1004B80082F308889847FEE700ED00E00004005842
:1004C800004802581A0000032C0000247B4BD3F884
:1004D800D42042F480422DE9F04FC3F8D42091B0E3
:1004E800D3F8D4200924764D002602F48042754FB3
:1004F8000BA9284600924FF04008009A4FF00A0BCB
:10050800DA6F4FF40079DFF8C4A142F48042DA6769
:10051800DA6F22F48042DA67D3F8E02042F0200252
:10052800C3F8E020D3F8E02002F020020192019AFB
:10053800D3F8E02042F00802C3F8E020D3F8E02026
:1005480002F008020292029AD3F8E02042F0200258
:10055800C3F8E020D3F8E02002F020020392039AC7
:10056800D3F8E02042F02002C3F8E020D3F8E020DE
:1005780002F020020492049AD3F8E02042F020020C
:10058800C3F8E020D3F8E02002F020020592059A93
:10059800D3F8E02042F04002C3F8E020D3F8E0208E
:1005A80002F040020692069AD3F8E02042F0800258
:1005B800C3F8E020D3F8E02002F080020792079AFF
:1005C800D3F8E02042F08002C3F8E020D3F8E0201E
:1005D80002F080020892089AD3F8E02042F0400224
:1005E800C3F8E020D3F8E02002F040020992099A0B
:1005F800D3F8E02042F04002C3F8E0204FF48062D4
:10060800D3F8E03003F040030A930A9B0223CDE9B4
:100618000B230323CDE90D630F9400F049FB01235D
:100628000BA93846CDF82C800D93CDF83CB000F0DE
:100638003FFB4FF400630BA923480B930D960F94CF
:1006480000F036FB04230BA950460F940B9300F0DF
:100658002FFB0BA92846CDF82C90CDF83CB000F024
:1006680027FB08230BA950460F940B9300F020FB9F
:1006780080230BA928460F940B9300F019FB0BA9B4
:100688003846CDF82C9000F013FB0BA92846CDF87E
:100698002C8000F00DFB4FF480430BA938460B93D8
:1006A80000F006FB32460F215C2000F063FA5C2064
:1006B80000F092FA11B0BDE8F08F00BF0044025874
:1006C8000014025800180258000C0258001C025866
:1006D80000B54FF4407395B04FF0407211480C9339
:1006E80005230F920222069300230B9206A9139367
:1006F8000093049303926A46CDE90D33CDE9113393
:10070800102302934FF48003059340F201130193E1
:1007180041F2883300F017FE003818BF012015B0E9
:100728005DF804FB3000002400B54FF4407395B029
:1007380041F2883217480C93062306A90693002332
:10074800CDE90D330F930B931393CDE9113300F0DB
:10075800FFFCE8B940F2022302224FF48001049022
:100768000C48CDE900331023CDE9023205236A464F
:10077800CDE905134FF0407306A90F9341F2883372
:1007880000F0E1FD003818BF012015B05DF804FB4A
:100798000120FAE730000024F0B57A4C9DB07A4B7E
:1007A8002046236000F0C3FC18B1012420461DB088
:1007B800F0BDFFF78BFE03260123C4E90163102374
:1007C800E3604FF0006393FAA3F3B3FA83F34FF4B3
:1007D80040756C48013B23610023C4E90553E3617C
:1007E8004023236200F054FC0028DED14FF48074CB
:1007F8006627099041F28832059069460D90069463
:100808000097CDE90700CDE90B005E4800F0A0FC99
:100818000028CAD1992641F288326946594800967B
:1008280000F096FC0028C0D141F28832694655484C
:100838000695009700F08CFC0028B6D141F288326A
:1008480069465048009600F083FC0028ADD1352356
:100858001790139041F288321B900EA914940E93AE
:10086800CDE91500CDE91900464800F071FC0028D3
:100878009BD1FFF72DFF002897D1B7231495179028
:100888000E9313901B90CDE91500CDE91900FFF7E1
:100898004BFF002889D141F288320EA9394800F06F
:1008A80057FC002881D1FFF713FF00287FF47DAFA4
:1008B800852200234FF440764FF040750E920222B5
:1008C8000EA93048ADF80030149617951393CDE96A
:1008D800182341F28832CDE91533CDE91A3300F0F7
:1008E80037FC00287FF461AF41F288326946254819
:1008F80000F0CAFC00287FF458AFFFF715FF044644
:1009080000287FF452AF812341F288320EA91D4896
:100918000E93BDF8003023F0F0031B051B0D43F4C4
:10092800004343F08003ADF8003000F011FC0028CC
:100938007FF43BAF41F288326946124800F04BFC25
:1009480000287FF432AFED236A460EA90D480E93B6
:100958004FF440631B9415934FF44053149611932E
:100968000523CDE9164513934FF000454FF080431A
:10097800CDE90044CDE9195300F035FD002818BF32
:10098800012413E730000024005000527047FEE7AE
:10099800FEE7FEE7FEE770477047704700F0C0B813
:1009A8001A491B48D1F8883043F4700310B5C1F8D0
:1009B8008830184B1A6842F001021A6000221A6146
:1009C8001C68204018609A61DA611A629A62DA62D9
:1009D8001A635A639A63DA631A645A64186820F4CB
:1009E800802018601A660C4B1B681B0C1B04B3F1A3
:1009F800005F03D2094B0122C3F80821084B43F2D8
:100A0800D2021A604FF000638B6010BD00ED00E069
:100A18007FEDF6EA004402580010005C00800051A7
:100A280000400052DFF834D0FFF7BAFF0C480D49F8
:100A38000D4A002302E0D458C4500433C4188C4231
:100A4800F9D30A4A0A4C002301E013600432A24297
:100A5800FBD301F07DF9FFF73BFC70470000082449
:100A68000000002410000024D01D000810000024FD
:100A780080000024FEE7704738B50F4B05461A780A
:100A88000AB9012038BD4FF47A73B3FBF2F30B4A6D
:100A98001068B0FBF3F000F0ADF804460028F0D180
:100AA8000F2DEED8024629464FF0FF3000F062F8CD
:100AB800034B20461D60E5E70800002400000024E1
:100AC8000C00002410B5032000F042F800F078FF75
:100AD8000F49104A8B69C3F30323D35C03F01F0348
:100AE800D8408B6903F00F03D35C0B4A03F01F0354
:100AF80020FA03F31360094B18600F20FFF7BCFFBF
:100B0800044618B9FFF7B7FF204610BD0124FBE7DC
:100B180000440258B81D0008040000240000002406
:100B2800034A044B11681B780B441360704700BFDD
:100B38007C00002408000024014B1868704700BF9F
:100B48007C000024014B1868000C70470010005C02
:100B580007490302CA6803F4E06322F4E06212045E
:100B6800120C134343F0BF6343F40033CB60704768
:100B780000ED00E0164B30B5DC68C4F30224C4F184
:100B88000703251D042B28BF0423062D4FF0FF352E
:100B98008CBF033C002405FA03F3002805FA04F58A
:100BA80021EA030322EA050203FA04F343EA0203F3
:100BB8004FEA0313DBB206DB00F1604000F5614049
:100BC80080F8003330BD00F00F00024A1354F9E7F3
:100BD80000ED00E014ED00E0002807DB01234109E7
:100BE80000F01F00024A834042F82130704700BFDE
:100BF80000E100E00138B0F1807F0BD24FF0E02334
:100C0800054AF0215861002082F8231007229861D4
:100C18001A6170470120704700ED00E0BFF35F8F55
:100C2800044B5A6A22F480325A620022C3F8942094
:100C3800704700BF00ED00E0064B40F00100C3F82C
:100C480094005A6A42F480325A62BFF34F8FBFF35E
:100C58006F8F704700ED00E04378144A10B5C2F872
:100C680098300178E9B14368C2F89C30C37A047BB4
:100C78001B0643EA04730B43817A43EAC143417B71
:100C880043EA8143817B43EA4143C17B43EA014311
:100C9800417A43EA0123017A43EA4103C2F8A030CA
:100CA80010BDC2F89C10C2F8A010F9E700ED00E0F2
:100CB8002DE9F74F0023DFF8C8914FF0B0440A68D8
:100CC80032FA03F502D103B0BDE8F08F4FF0010E00
:100CD8000EFA03FE1EEA020200F0BC804E684FEADC
:100CE80043084FF0030C06F003050CFA08FC6F1ECE
:100CF8006FEA0C0C012F34D8876807EA0C0ACF6812
:100D080007FA08F747EA0A078760476827EA0E0ED6
:100D1800C6F300179F4047EA0E074760C768022DD1
:100D280007EA0C0E8F6807FA08F747EA0E07C7604C
:100D380019D14FEAD30A03F0070B4FF00F0E00EB5F
:100D48008A0A4FEA8B0BDAF820700EFA0BFE27EAB4
:100D58000E0E0F6907FA0BF747EA0E07CAF820705C
:100D680001E0032DDAD1076805FA08F516F4403FCB
:100D780007EA0C0745EA070505606BD0D9F8F45077
:100D880023F0030703F0030C45F0020507F1B04711
:100D98004FEA8C0CC9F8F45007F58067D9F8F4507D
:100DA80005F002050195019D0F25D7F808E005FA21
:100DB8000CF52EEA050E314DA8424DD005F580659B
:100DC800A8424BD005F58065A84249D005F5806555
:100DD800A84247D005F58065A84245D005F580654D
:100DE800A84243D005F58065A84241D005F5806545
:100DF800A8423FD005F58065A8423DD005F580653D
:100E0800A8420CBF09250A2505FA0CF516F4801F1F
:100E180045EA0E05BD606FEA020725680CBF3D4034
:100E2800154316F4001F256065680CBF3D40154347
:100E380016F4003F6560D4F884500CBF3D4015435C
:100E4800F603C4F88450D4F8805054BF3D4015438D
:100E5800C4F88050013332E70025D5E70125D3E7F0
:100E68000225D1E70325CFE70425CDE70525CBE704
:100E78000625C9E70725C7E70825C5E70000025882
:100E88000044025838B5104CE36813F0040FE368C7
:100E980005D103F00703181A18BF012038BD23F045
:100EA80007031843E060FFF747FE054663689B04A5
:100EB80001D50020F2E7FFF73FFE401BB0F57A7F2F
:100EC800F4D90120EAE700BF004802582DE9F047AD
:100ED8004E6A36B1B2F1406F03D08B6A0468013BA9
:100EE8002361D1F818A0D1E9077EBAF1000F4CD0E0
:100EF8004C6905684FEA844C4AEA06040B68D1F845
:100F0800348044EA020AD1E90B09BEF1000F24D06B
:100F18008E684AEA0E04EE610E699FB13B430343B3
:100F2800C86843EA090343EA08033343034343EA2F
:100F38000C032343B2F1406F6B6101D04B68AB6186
:100F4800BDE8F087034343EA090343EA0803334350
:100F580043EA0C0323436B61F2E767B13B43034366
:100F6800C86843EA090343EA0803034343EA0C0356
:100F780043EA0A03DEE7034343EA090343EA0804B2
:100F880044EA0C0343EA0A03E5E7BEF1000F2CD05C
:100F980046EA0E058B6804684E691543E361D1F88B
:100FA80034C0B6040B69D1E90B8EA7B13B43C868BE
:100FB800B2F1406F43EA080343EA0E0343EA0C0325
:100FC80043EA000343EA060343EA05036361B7D033
:100FD8004B68A361B4E743EA080343EA0E0343EA14
:100FE8000C0333432B436361AAE7D7B146EA0703EF
:100FF800CC6A0068B2F1406F43EA020343EA040393
:101008000C6B43EA04034C6B43EA0403CC6843EAE1
:1010180004034C6943EA8443436191D04B6883617C
:101028008EE7002E8CD0CB6A0068334313430A6BDB
:1010380013434A6B13434A6943EA824343617FE798
:101048002DE9F041DDF8188004460E4615461F4686
:1010580022689368334214BF01230023AB4201D1B5
:10106800002012E0B8F1FF3FF3D0FFF765FDC01B89
:10107800404502D8B8F1000FEAD10423012084F8D2
:101088004130636C43F001036364BDE8F08170474D
:1010980030B5044685B0FFF74FFD0346002C40D01D
:1010A80094F841203AB903902046FFF7F0FF41F247
:1010B8008832039BA2642068A1680268013922F47F
:1010C800F85242EA0122202102602046A26C0092D6
:1010D8000022FFF7B5FF10BB2268E569E3681168D5
:1010E8002B43256A21F07F412B43656821F0D0010D
:1010F80043EA05630B4313605568D4E905310B4394
:10110800216943EA0143084929400B4353601368A6
:1011180043F0010313600123606484F8413005B093
:1011280030BD0120FBE700BFFEF8E0FF704710B5B7
:10113800044658B10268136823F001031360FFF7EF
:10114800F5FF0020606484F8410010BD0120FCE731
:101158002DE9F043044685B017468946FFF7ECFCB5
:1011680094F840200346012A33D00122022684F84D
:10117800402094F84120012A5FFA82F827D1002202
:101188000390202120466264009784F84160FFF7AD
:1011980057FF0546A0B9024649462046FFF796FE86
:1011A800D9F82420039B4AB9424631462046009785
:1011B800FFF746FF054618B92368DE6084F84180CA
:1011C800002384F84030284605B0BDE8F083354652
:1011D800F6E70225F7E7F0B5044685B016460F4650
:1011E800FFF7AAFC94F8402003462568012A49D055
:1011F800012284F8402094F84120012AD0B23FD13E
:1012080000226264002F36D0122284F841202A6915
:101218000132E2622A6967620132A2626A6922F0D7
:1012280040626A61E26A8AB9012202212046009678
:10123800FFF706FF10B923680222DA60012384F859
:101248004130002384F8403005B0F0BD012204216C
:10125800204600960393FFF7F3FE0028EED1626A5A
:10126800039B127885F82020626A01326262E26A82
:10127800013AE262D6E7636C43F008036364E0E78F
:101288000220DEE70220DFE7F0B5044685B0164607
:101298000F46FFF751FC25680346D5F818C094F8A7
:1012A8004020012A4DD0012284F8402094F84120A2
:1012B800012AD0B243D100226264002F3AD0222200
:1012C80084F841202A690132A2632A69276301321E
:1012D8006263696921F0406141F080616961C5F824
:1012E80018C0A26B8AB90122022120460096FFF796
:1012F800A7FE10B923680222DA60012384F841307E
:10130800002384F8403005B0F0BD012206212046B4
:1013180000960393FFF794FE0028EED195F820106D
:10132800226B039B1170226B01322263A26B013A7C
:10133800A263D6E7636C43F008036364E0E7022026
:10134800DEE70220DFE72DE9FF41044615461E4689
:101358008846FFF7F1FB94F840200346012A40D065
:10136800012284F8402094F84120012AD7B236D1CE
:1013780042210022039020466264009684F84110BE
:101388002021FFF75DFE20BB21682A6828698A6250
:101398006A684A62AA68CA620A6822F4400202437A
:1013A800204642F480020A604146EA68C8F82820CC
:1013B8004FF00062FFF78AFD039B3A46082120465A
:1013C8000096FFF73DFE20B923680822DA6084F80A
:1013D8004170002384F8403004B0BDE8F081022059
:1013E800F7E70220F8E7F7B5044616460F46FFF779
:1013F800A3FB94F840200346012A33D0012284F845
:10140800402094F84120012A2AD100228221204636
:10141800626484F84110A16C00912021FFF710FE4E
:101428000546B8B9236872681868082A20F00800C9
:1014380040EA0200186007D132681A631022DA60A5
:101448001A6842F480121A604FF04062394620460A
:10145800FFF73CFD002384F84030284603B0F0BD78
:101468000225F7E70225F8E7F8B5044608B9012090
:101478008CE00368D8075ED42368990700F1AC8034
:101488002368DA0627D59C4A1369916A03F0380362
:10149800082B07D0182B40F0038101F00303012B20
:1014A80040F0FE801368DB0502D5E369802BDED1AE
:1014B800FFF748FB41F20303216A98428E4B00F282
:1014C800E8805A68202922F0F8420CBF42F0804296
:1014D80042EA81625A602368190700F12281236871
:1014E8009A0600F1438123685D071ED5834D2B685A
:1014F80043F480732B60FFF71FFB06462B68DA0561
:1015080040F15981A3687C4D012B40F05B812B6F22
:1015180043F001032B6741F28837FFF70DFB764E46
:101528000546336F9B0740F17381606A002840F0DD
:10153800768100202AE0704A1369916A03F0380323
:10154800102B05D0182B0AD101F00303022B06D16A
:1015580013689A0390D56368002B8DD187E7636879
:10156800654DB3F5803F12D12B6843F480332B606F
:10157800FFF7E2FA604E054633689B033FF57CAF00
:10158800FFF7DAFA401B6428F6D90320F8BDA3B99F
:101598002B6823F480332B602B6823F480232B6083
:1015A800FFF7CAFA06462B689F037FF565AFFFF77A
:1015B800C3FA801B6428F6D9E7E7B3F5A02F2B6898
:1015C80003D143F480232B60CEE723F480332B60D0
:1015D8002B6823F48023CAE74749E2680B69886AC5
:1015E80013F0380303D0182B2BD1800729D10B68AF
:1015F8005B0702D5002A3FF43AAF3F4D2B6823F032
:10160800190313432B60FFF797FA06462B685F0709
:1016180011D5FFF797FA41F20303226998426B68E4
:1016280022D823F47C33402A0CBF43F4003343EA26
:1016380002336B6024E7FFF77FFA801B0228E5D9A5
:10164800A3E72D4D2B68A2B123F0190313432B6098
:10165800FFF772FA06462B685807DAD4FFF76CFAD8
:10166800801B0228F7D990E723F0FE4343EA026380
:10167800DFE723F001032B60FFF75EFA06462B68CD
:1016880059077FF5FDAEFFF757FA801B0228F6D9F8
:101698007BE7DA6822F07C5242EA0162DA601AE7F4
:1016A800E369154D63B32B6843F080032B60FFF7A4
:1016B80043FA06462B68DF0511D5FFF743FA41F2D6
:1016C8000303226A984210D86B68202A23F0F84353
:1016D8000CBF43F0804343EA82636B60FBE6FFF78D
:1016E8002BFA801B0228E5D94FE7EB6823F07C53DF
:1016F80043EA0263EB60EEE60044025800480258F1
:101708002B6823F080032B60FFF716FA06462B6838
:10171800D8057FF5E0AEFFF70FFA801B0228F6D94F
:1017280033E76369A54D83B16B6F43F001036B67C2
:10173800FFF702FA06466B6F9B073FF5D0AEFFF73F
:10174800FBF9801B0228F6D91FE76B6F23F0010312
:101758006B67FFF7F1F906466B6F9F077FF5BFAE22
:10176800FFF7EAF9801B0228F6D90EE7A369934D23
:1017780083B12B6843F480532B60FFF7DDF90646ED
:101788002B6898043FF5AFAEFFF7D6F9801B022807
:10179800F6D9FAE62B6823F480532B60FFF7CCF9CF
:1017A80006462B6899047FF59EAEFFF7C5F9801BA6
:1017B8000228F6D9E9E6FFF7BFF9801B64287FF60F
:1017C8009DAEE2E6B3B92B6F41F2883723F00103EF
:1017D8002B672B6F23F004032B67FFF7ADF9064641
:1017E8002B6F98077FF5A1AEFFF7A6F9801BB842CB
:1017F800F6D9CAE6052B2B6F03D143F004032B67F8
:1018080085E623F001032B672B6F23F0040381E6A1
:10181800FFF792F9401BB8427FF683AEB5E6674DF5
:101828002B6903F03803182B7AD02B68022823F091
:1018380080732B6067D1FFF77FF906462B68990103
:101848005BD4AB6AA26A23F47C7323F003031343CB
:10185800E26A43EA0213AB62636BA26B013B013A93
:101868005B0212049BB202F4FE021343226B013A9C
:10187800C2F308021343E26B013A120602F0FE4279
:1018880013432B63EB6A23F00103EB626B6BA26CCF
:1018980023F47F4323F0F80343EAC2036B63EB6A44
:1018A800226C23F00C031343EB62EB6A626C23F0A7
:1018B80002031343EB62EB6A43F48033EB62EB6A97
:1018C80043F40033EB62EB6A43F48023EB62EB6A88
:1018D80043F00103EB622B6843F080732B60FFF742
:1018E8002BF9364D04462B689A013FF522AEFFF7D7
:1018F80023F9001B0228F6D947E6FFF71DF9801BDC
:1019080002289BD941E6FFF717F904462B689B018B
:101918007FF50FAEFFF710F9001B0228F6D934E661
:101928000128AA6A2B6B3FF431AE02F00301A06ACA
:1019380081427FF49CADC2F30512E16A8A427FF4CA
:1019480096AD226BC3F30801013A91427FF48FAD43
:10195800626BC3F34621013A91427FF488ADA26BD2
:10196800C3F30641013A91427FF481ADE26BC3F3C0
:101978000663013A93427FF47AAD6B6BA26CC3F3B2
:10198800CC039A423FF4D5AD0C4DEB6A23F001032A
:10199800EB62FFF7D1F80646FFF7CEF8B042FBD06E
:1019A8006B6BA26C23F47F4323F0F80343EAC20372
:1019B8006B63EB6A43F00103EB62BAE5004402583B
:1019C800494B1A6902F03802102A30B500F08880B5
:1019D800182A0CD0002A40F085801A68434812F073
:1019E800200F03D01B68C3F3C103D84030BD996AE8
:1019F8009D6ADC6A15F47C7FC5F305105A6BF5D037
:101A0800C2F3CC0204F0010401F0030107EE900ACE
:101A18006243B7EE006A0129B8EEE77A06EE902A2B
:101A2800FAEEE96A4ED002293ED000294AD11A6856
:101A3800920627D519682D4AC1F3C1011B6BCA400C
:101A4800C3F3080307EE902AF8EEE75AC5EE877A43
:101A580007EE103AB8EEC77A37EE267A37EE067AEE
:101A680067EE877A204B1B6BC3F34623013307EEDF
:101A7800103AF8EEC76A87EEA67AFCEEC77A17EE38
:101A8800900AB3E71B6BC3F3080307EE903AF8EE2E
:101A9800E77A77EEA67A77EE867A9FED156AC6EE34
:101AA800076A67EEA67ADDE71B6BC3F3080307EE48
:101AB800903AF8EEE77A77EEA67A77EE867A9FED97
:101AC8000D6AECE71B6BC3F3080307EE903AF8EED8
:101AD800E77A77EEA67A77EE867A9FED076ADEE7F1
:101AE800064883E7064881E7004402580090D0037F
:101AF8000024744C20BCBE4B0024744A40787D01FD
:101B080000093D002DE9F0410D46044610B90120B9
:101B1800BDE8F081884A136803F00F038B42C0F0D8
:101B2800938023685F0700F19B801E070BD58349CC
:101B38006069CA6902F07002904204D9CA6922F049
:101B480070020243CA61D8060BD57C49A069CA69EC
:101B580002F4E062904204D9CA6922F4E0620243C6
:101B6800CA6199060BD57549E0690A6A02F07002E4
:101B7800904204D90A6A22F0700202430A629A0764
:101B88000BD56E49E0688A6902F00F02904204D9C9
:101B98008A6922F00F0202438A61DF076ED4236844
:101BA8009E0700F1A18064490A6802F00F02AA4268
:101BB80000F2A880580700F1B18019070BD55F49DA
:101BC8006069CA6902F07002904204D2CA6922F0C0
:101BD80070020243CA61DA060BD55849A069CA697E
:101BE80002F4E062904204D2CA6922F4E06202433D
:101BF800CA619B060BD5514AE169136A03F0700369
:101C0800994204D2136A23F070030B431362FFF75F
:101C1800D7FE4A494A4A8B69C3F30323D35C03F0CE
:101C28001F03D8408B6903F00F03D35C454A03F0C8
:101C38001F0320FA03F31360434B1860434BBDE8BE
:101C4800F0411868FEF718BF136823F00F030B4321
:101C58001360136803F00F038B427FF458AF60E7FB
:101C6800364920698A6902F0700290427FF65DAFBA
:101C78008A6922F0700202438A6156E72F4BA168F5
:101C88009A6922F470620A439A6161681A680229A3
:101C98001DD112F4003F3FF43AAF1A6941F2883877
:101CA800264F22F007020A431A61FEF745FF06464F
:101CB8003B69626803F03803B3EBC20F3FF46FAFC0
:101CC800FEF73AFF801B4045F2D9032020E703299D
:101CD80002D112F0007FDEE7012902D112F4807FE1
:101CE800D9E712F0040FD6E71449E0688A6902F0D0
:101CF8000F029042BFF457AF8A6922F00F020243E5
:101D08008A6150E70A6822F00F022A430A600A68CB
:101D180002F00F02AA427FF4FAAE4BE707492069A6
:101D28008A6902F070029042BFF447AF8A6922F0D4
:101D3800700202438A6140E70020005200440258C2
:101D4800B81D000804000024000000240C00002432
:101D580070B50D4D0D4C641BA4100026A64209D188
:101D68000B4D0C4C00F018F8641BA4100026A6427A
:101D780005D170BD55F8043B98470136EEE755F894
:101D8800043B98470136F2E7C81D0008C81D000843
:101D9800C81D0008CC1D0008F8B500BFF8BC08BC79
:101DA8009E467047F8B500BFF8BC08BC9E46704711
:101DB80000000000010203040102030406070809E9
:041DC800BD02000850
:041DCC009902000870
:101DD0000090D0030090D00301000000100000002C
:0400000508000A2DB8
:0200000490006A
:1000000000000220D9020090FD2A0090FF2A0090F3
:10001000012B0090032B0090052B009000000000A6
:10002000000000000000000000000000072B00900E
:10003000092B0090000000000B2B00900D2B00906E
:1000400029030090290300902903009029030090C0
:1000500029030090290300902903009029030090B0
:1000600029030090290300902903009029030090A0
:100070002903009029030090290300902903009090
:100080002903009029030090290300902903009080
:100090002903009029030090290300902903009070
:1000A0002903009029030090290300902903009060
:1000B0002903009029030090290300902903009050
:1000C0002903009029030090290300902903009040
:1000D0002903009029030090290300902903009030
:1000E00029030090290300900000000029030090DC
:1000F0002903009029030090290300902903009010
:1001000029030090290300902903009029030090FF
:1001100029030090290300902903009029030090EF
:1001200029030090290300902903009029030090DF
:1001300029030090290300902903009029030090CF
:1001400000000000000000000000000000000000AF
:1001500029030090290300902903009029030090AF
:10016000290300902903009029030090290300909F
:10017000290300902903009029030090290300908F
:10018000290300902903009029030090290300907F
:10019000290300902903009029030090290300906F
:1001A000290300902903009029030090290300905F
:1001B000290300902903009029030090290300904F
:1001C000290300902903009029030090290300903F
:1001D00029030090112B009029030090290300901F
:1001E000290300902903009029030090290300901F
:1001F000290300902903009029030090290300900F
:1002000029030090290300902903009029030090FE
:1002100029030090290300902903009029030090EE
:10022000290300902903009029030090000000009A
:10023000290300902903009000000000290300908A
:1002400029030090290300902903009029030090BE
:1002500029030090290300902903009029030090AE
:10026000290300902903009029030090290300909E
:10027000290300902903009029030090000000004A
:10028000290300902903009029030090000000003A
:080290000000000029030090AA
:1002980010B5054C237833B9044B13B10448AFF3B8
:1002A80000800123237010BD4000002000000000E2
:1002B8000065009008B5034B1BB103490348AFF331
:1002C800008008BD00000000440000200065009088
:1002D800DFF834D003F058FB0C480D490D4A0023D1
:1002E80002E0D458C4500433C4188C42F9D30A4AE3
:1002F8000A4C002301E013600432A242FBD306F04B
:10030800D7F800F093F870470000022000000020A2
:100318003C000020F48C009040000020E8070120F9
:10032800FEE700002DE9F0410220CEB004F0F2FB18
:10033800002301933A4BDA6A22F00102DA62DB6A9F
:1003480003F001030193374B9A6942F440429A61E2
:100358009A6902F440420192019A9A699404FCD580
:1003680001204FF480330225A0224FF0050804260F
:10037800082718951A9519961B97CDE90B030023A2
:100388000BA80E9312931D931C93CDE91455CDE938
:10039800168204F0E3FB044600B1FEE760230A225C
:1003A8002E901EA8CDF8A080CDE929351223CDE9DD
:1003B8002B234FF400634FF480222D930023CDE9C3
:1003C8001E234FF40013409305F060F93F210323E7
:1003D8004FF4806203A8CDE9031340233146CDE9E9
:1003E8000547CDE90733CDE9092304F005FF00B13E
:1003F800FEE70D4B1A6842F080021A60D3F8F42029
:1004080042F00202C3F8F420D3F8F43003F00203F8
:100418000293029B03F062FB4EB0BDE8F08100BF7F
:100428000004005800480258004402587FB503F001
:10043800C3FB40F201134FF050426846ADF800305C
:10044800364BCDE901234FF48033039303F0D2FBFD
:10045800042003F0BFFB324B5A6912F4003211D169
:10046800BFF34F8FBFF36F8FC3F85022BFF34F8F87
:10047800BFF36F8F5A6942F400325A61BFF34F8F4E
:10048800BFF36F8F264A536913F4803323D1C2F820
:100498008430BFF34F8FD2F8803043F6E074C3F353
:1004A800C900C3F34E335B0103EA0406014646EA7A
:1004B80081750139C2F86052F9D2203B13F1200F3F
:1004C800F2D1BFF34F8F536943F480335361BFF3C5
:1004D8004F8FBFF36F8F03F0BBFAFFF723FF0121A4
:1004E800002003F029F90F4805F09AFF002005F0D5
:1004F800C7FF4FF050434FF07F410B4A43F8041BAE
:100508009342FBD1002002F0CBFB01F0FBF801F095
:10051800D3FD02F06FFA00F053F9FEE7180000036C
:1005280000ED00E0A88C0090000010D008484FF0C3
:10053800005200230221C0E90023C0230522C0E99C
:100548000A231423C0E90C136323836305F09EB8C0
:10055800C0000020164802680132B2F5FA7F30B5B3
:1005680002601AD913490B88B3F5C04F16D2124C42
:1005780025789DB180339BB2B3F5C04F0B8001D372
:1005880000232370B2F5FA6F07D94FF48053012284
:100598000B80094B1A700023036030BD803B9BB26F
:1005A8007F2B0B809EBF0124034B1C70EAE700BF22
:1005B80088010020080000200A0000204D4B2DE98A
:1005C800F0471C88C034A4B21C804B4B1A8802F533
:1005D800807292B21A804FEA122E484B70460EEB88
:1005E800142A19880EF1800E5FFA8AF6803189B2D2
:1005F8001980090A424B471A01EB122201EB142C0D
:1006080051FA8AFAD2B2FFB202F140085FFA8CFCC2
:1006180007F140055FFA8AFA53F82880ACEB000925
:1006280053F82550A0EB14205FFA89F94544DFF808
:10063800E880C0B22D12803088F8005053F8275057
:1006480053F82270A2EB1422ED1B2E4FD2B22D12BA
:100658003D7053F82E50C1EB142E2B4F711A45F3F1
:10066800D7155FFA8EFEC9B280363D7009F1400594
:100678000AF1400753F8255053F82770ED1B02F193
:10068800400753F8222053F827703D4401F14007F2
:1006980053F8211053F82770ED1B53F82E700EF104
:1006A800400E05EBD57853F82C500CF1400CED1B9F
:1006B800164F05EB68052D123D7053F82A5053F874
:1006C8002970ED1B691A53F82E508A1A53F82C100A
:1006D80002EBD272294401EB62020D4912120A7030
:1006E80053F8202053F82630D31A0A4A1B121370E5
:1006F800BDE8F087800100208201002084010020ED
:10070800186500908D0100208E0100208F010020C7
:1007180090010020910100208C0100201F4BDFF880
:1007280098C01F4A2DE9F04F93F900B000241D4BE3
:10073800DFF888E093F900A01B4B93F900901B4B5E
:1007480093F900301F461A4B1A4801341EF8011B52
:100758000232082C03F1020300EB01211CF8010B03
:1007680011F80B5011F80A60124901EB002010F83B
:100778000910C05D06EB0008A0EB060002F8028C29
:1007880005EB0108A1EB050102F8010C03F8028C46
:1007980003F8011CD8D1BDE8F08F00BF90010020FC
:1007A800C4A900208D0100208F0100208C010020A9
:1007B800D4A90020920100209CA9002094A900201F
:1007C800C04B0020C04AC1492DE9F04F13608DB0DD
:1007D8004FF05043BE4A136045000F46002301F511
:1007E8008071EDB20E461A460133140A2A44DBB270
:1007F80007F8014B644292B2802B06F8014DF3D101
:1008080001308028E8D14FF480520021B14840F6E9
:10081800EF0405F045FE4FF480520021AE4805F084
:100828003FFEAD49AB484FF6EF03002200F8012B1D
:10083800A3F168020133B2F5877F9BB28CBF002217
:100848000122A3424FEA420201F8012B40F0FD8049
:10085800A24D4420A24CA349A0F10803D8B203F04A
:100868003F035A4243F080030428D2B251F82330A0
:1008780002F1800251F82220A2EB030343F307237D
:1008880005F8013D04F8013BE6D1974D4220974C0D
:10089800031FD8B203F03F035A4243F080030228F3
:1008A800D2B251F8233002F1800251F82220A2EB93
:1008B800030343F3072305F8013D04F8013BE7D19F
:1008C80072B6DFF858B26022894CFF21894805F0DA
:1008D800E7FD7D4EFFF73EFE00F002FC01F0E6F872
:1008E80001F062FDDBF80010324600234FF07F4034
:1008F800994240F0B080FFF761FEDFF8F081FFF722
:100908000DFF00237C4DADF80A30ADF80C307B4B61
:100918007B4A93F900C07B4B93F900E06B4BBDF821
:100928000C1089B20F2940F29B800021764BDFF82A
:10093800D0C14FF4F0791F880846DFF898E1DFF856
:100948009881CBF80010ADF80810BDF808309BB2BC
:10095800B3F5806FC0F0718109B1CBF80000DBF806
:10096800002000234FF0FF319A4240F0A28100F0AE
:10097800DFFB01F0C3F801F03FFD644B514A02214F
:10098800C3F8AC205962D3F8AC109142FBD1FFF701
:10099800E1FD4F4D00F0B8FB01F09CF801F018FDA7
:1009A8005B4B2A464FF07F4019680023994240F07C
:1009B8008581FFF703FEDFF83481FFF7AFFE0023E0
:1009C8004D4EADF81430ADF816304C4B4C4A93F9F7
:1009D80000C04C4B93F900E03C4BBDF8161089B2AF
:1009E8000F2940F270810021474B494E4FF4F07AAD
:1009F800B3F800C00846DFF8DC80DFF8DC9031602F
:100A0800ADF81210BDF812309BB2B3F5806FC0F08C
:100A1800198201B13060326800234FF0FF319A42E9
:100A280040F04C8200F0FAFC01F0D8F901F064FEC5
:100A3800364B4FF05042C3F8AC2002225A62D3F82A
:100A4800AC20B2F1504FFAD143E7B3F5EF7F8CBF3A
:100A580000220122EAE652F8045B0133286047E7E6
:100A6800BDF80C102B4889B22B4F18F9011089B228
:100A7800ADF80410BDF8041089B203EB012111F898
:100A88000C108DF80010BDF8041089B203EB012199
:100A980011F80E108DF80110BDF80C1089B24156EE
:100AA80089B2ADF806100021ADF80810BDF808109D
:100AB80089B20F2934D9BDF80C10013189B2ADF8CB
:100AC8000C102CE7000008D0949900209201002017
:100AD80094890020E4A90020E4B900209CA9002002
:100AE8009CA9002018650090B4A90020B4A9002092
:100AF800928100205C000020C4A900208E01002003
:100B0800928500209101002008000020001000506C
:100B180000000020A4A90020D4A90020040000207F
:100B2800BDF80610BDF808A089B29DF800901FFA1C
:100B38008AFABDF80A0003EB012115F90AA080B270
:100B480011F80A10894404F80090BDF80A00BDF8AD
:100B58000A1080B214FA81F1205CC0434870BDF8D5
:100B68000610BDF808A089B29DF801901FFA8AFA0C
:100B7800BDF80A0003EB012117F90AA080B211F8A9
:100B88000A10894402F80090BDF80A00BDF80A105E
:100B980080B212FA81F1105CC0434870BDF80610AB
:100BA800BDF808A089B29DF800901FFA8AFABDF82E
:100BB8000A0003EB012115F90AA014FA80F011F8D4
:100BC8000A10A1EB09018170BDF80A00BDF80A10EE
:100BD80014FA80F014FA81F18078C043C870BDF827
:100BE8000610BDF808A089B29DF801901FFA8AFA8C
:100BF800BDF80A0003EB012117F90AA012FA80F0E8
:100C080011F80A10A1EB09018170BDF80A00BDF8BE
:100C18000A1012FA80F012FA81F18078C043C87085
:100C2800BDF80A10043189B2ADF80A10BDF80810F1
:100C3800013189B2ADF8081038E7BDF80830BDF8C1
:100C480008209BB292B2E3561CF902201B01120144
:100C58007B437A430693069B0692069A1B1412144A
:100C680003F5006302F500621BB212B21EF80350CE
:100C780018F802A045EA0A05032D13D1A2F5EF6280
:100C8800A3F5E263012107920893079A089B09FBE1
:100C980002338D4A9B0003F1504303F5002342F8C9
:100CA80020300130BDF8083001339BB2ADF8083070
:100CB8004BE656F8040B0133016055E652F8046B15
:100CC8000133306072E6BDF81610804889B2804F53
:100CD80018F9011089B2ADF80E10BDF80E1089B2DE
:100CE80003EB012111F80C108DF80210BDF80E105D
:100CF80089B203EB012111F80E108DF80310BDF82D
:100D0800161089B2415689B2ADF810100021ADF81D
:100D18001210BDF8121089B20F2906D9BDF81610A5
:100D2800013189B2ADF8161057E6BDF81010BDF8BC
:100D380012A089B29DF802901FFA8AFABDF8140031
:100D480003EB012116F90AA080B211F80A108944B0
:100D580004F80090BDF81400BDF8141080B214FA1D
:100D680081F1205CC0434870BDF81010BDF812A096
:100D780089B29DF803901FFA8AFABDF8140003EBB4
:100D8800012117F90AA080B211F80A10894402F863
:100D98000090BDF81400BDF8141080B212FA81F169
:100DA800105CC0434870BDF81010BDF812A089B29D
:100DB8009DF802901FFA8AFABDF8140003EB01218E
:100DC80016F90AA014FA80F011F80A10A1EB09012B
:100DD8008170BDF81400BDF8141014FA80F014FAEC
:100DE80081F18078C043C870BDF81010BDF812A01A
:100DF80089B29DF803901FFA8AFABDF8140003EB34
:100E0800012117F90AA012FA80F011F80A10A1EBD3
:100E180009018170BDF81400BDF8141012FA80F0B1
:100E280012FA81F18078C043C870BDF814100431FB
:100E380089B2ADF81410BDF81210013189B2ADF8BD
:100E4800121066E7BDF81230BDF812209BB2214F90
:100E580092B2E356BA561B0112010CFB03F30CFBCA
:100E680002F20993099B0992099A1B14121403F5BB
:100E7800006302F500621BB212B218F8037019F889
:100E880002E047EA0E07032F11D1A2F5EF62A3F59E
:100E9800E26301210A920B930A9A0B9B0AFB023325
:100EA8000D4A9B0003F1504342F820300130BDF851
:100EB800123001339BB2ADF81230A3E555F8040B9C
:100EC80001330160ABE500BF94990020A4A900207C
:100ED800D4A9002092850020948900204D4B2DE94B
:100EE800F0471C88E034A4B21C804B4B1A8880322F
:100EF80092B21A804FEA122E484B70460EEB142A13
:100F080019880EF1800E5FFA8AF6603189B219806D
:100F1800090A434B471A01EB122201EB142C51FA30
:100F28008AFAD2B2FFB202F140085FFA8CFC07F1EC
:100F380040055FFA8AFA53F82880ACEB000953F8A9
:100F48002550A0EB14205FFA89F94544DFF8E880C2
:100F5800C0B22D12803088F8005053F8275053F84B
:100F68002270A2EB1422ED1B2E4FD2B22D123D702F
:100F780053F82E50C1EB142E2B4F711A45F3D71589
:100F88005FFA8EFEC9B280363D7009F140050AF15C
:100F9800400753F8255053F82770ED1B02F140071E
:100FA80053F8222053F827703D4401F1400753F8C5
:100FB800211053F82770ED1B53F82E700EF1400ED8
:100FC80005EBD57853F82C500CF1400CED1B174F5E
:100FD80005EB68052D123D7053F82A5053F8297017
:100FE800ED1B691A53F82E508A1A53F82C1002EB8D
:100FF800D272294401EB62020D4912120A7053F8A9
:10100800202053F82630D31A0A4A1B121370BDE861
:10101800F08700BFE4C90020E6C90020E8C9002025
:10102800186D0090EBC90020ECC90020EDC9002024
:10103800EEC90020EFC90020EAC900201F4BDFF8E5
:1010480098C01F4A2DE9F04F93F900B000241D4BBA
:10105800DFF888E093F900A01B4B93F900901B4B35
:1010680093F900301F461A4B1A4801341EF8011B29
:101078000232082C03F1020300EB01211CF8010BDA
:1010880011F80B5011F80A60124901EB002010F812
:101098000910C05D06EB0008A0EB060002F8028C00
:1010A80005EB0108A1EB050102F8010C03F8028C1D
:1010B80003F8011CD8D1BDE8F08F00BFEEC90020AD
:1010C80010DA0020EBC90020EDC90020EAC9002091
:1010D80020DA002092010020F8D90020F0D9002061
:1010E800074B4FF07F40074A1968002310B5994213
:1010F80000D110BD52F8044B01332060F7E700BF60
:1011080010000020F0D10020074B4FF07F40074A25
:101118001968002310B5994200D110BD52F8044B4C
:1011280001332060F7E700BF0C000020F0C9002061
:101138002DE9F04786B0AC4FFFF7D0FEAB4CFFF778
:101148007DFF0023AA4AADF80830ADF80A30A94B54
:10115800A94993F90050A94B93F90060A84BBDF831
:101168000A0080B2072824D90023A648A24C4FF4CD
:10117800F07E984619469E4DA34EA44FDFF890C2C4
:101188000360ADF80630BDF806309BB2B3F5007FBA
:10119800C0F0E280B8F1000F00D0016001680023C0
:1011A8009B4A4FF0FF30994240F0188106B0BDE8E5
:1011B800F087BDF80A00DFF85CC280B2385680B20A
:1011C800ADF80200BDF8020080B203EB0020405DDC
:1011D8008DF80000BDF8020080B203EB0020805DAE
:1011E8008DF80100BDF80A0080B21CF90000DFF894
:1011F80028C280B2ADF804000020ADF80600BDF8A2
:10120800060080B20F2806D9BDF80A00013080B266
:10121800ADF80A00A3E7BDF804E0BDF806901FFA90
:101228008EFE9DF800001FFA89F9BDF8088003EBCF
:101238000E2E14F909901FFA88F81EF809E0704478
:10124800BDF808E01FFA8EFE02F80800BDF8080095
:1012580012F80EE012FA80F06FEA0E0E80F801E044
:10126800BDF804E0BDF806801FFA8EFE9DF8010067
:101278001FFA88F8BDF8089003EB0E2E1CF90880B9
:101288001FFA89F91EF808E07044BDF808E01FFA53
:101298008EFE01F80900BDF8080011F80EE011FAF9
:1012A80080F06FEA0E0E80F801E0BDF80400BDF88A
:1012B80006E080B29DF800901FFA8EFEBDF8088007
:1012C80003EB002014F90EE012FA88F810F80E006B
:1012D800BDF808E0A0EB090012FA8EFE88F80200BB
:1012E800BDF808009EF802E012FA80F06FEA0E0ED0
:1012F80080F803E0BDF80400BDF806E080B29DF870
:1013080001901FFA8EFEBDF8088003EB00201CF93F
:101318000EE011FA88F810F80E00BDF808E0A0EB0E
:10132800090011FA8EFE88F80200BDF808009EF840
:1013380002E011FA80F06FEA0E0E80F803E0BDF8C3
:101348000800043080B2ADF80800BDF8060001308E
:1013580080B2ADF8060052E7BDF80630BDF80620A9
:101368009BB292B214F90290EA56530103EB0213AE
:101378004FEA49129B0202EB091203939202039B64
:1013880003921B14039A03F5006312141BB202F5AF
:10139800006216F8039012B217F802A049EA0A0987
:1013A800B9F1030F13D1A2F5EF62A3F5E2634FF091
:1013B800010804920593049A059B0EFB02339B00D7
:1013C80003F1504303F500234CF821300131BDF8F7
:1013D800063001339BB2ADF80630D4E652F8044B20
:1013E80001332060DFE600BF08DA002010DA0020B1
:1013F80092810020ECC9002092850020EFC90020CE
:101408009201002010000020E4A90020E4B9002087
:10141800F0D1002000DA002020DA00202DE9F04782
:1014280086B0AB4FFFF75AFDAA4CFFF707FE002323
:10143800A94AADF80830ADF80A30A84BA84993F985
:101448000050A84B93F90060A74BBDF80A0080B282
:10145800072824D90023A548A14C4FF4F07E9846CC
:1014680019469D4DA24EA34FDFF88CC20360ADF81C
:101478000630BDF806309BB2B3F5007FC0F0E280BD
:10148800B8F1000F00D00160016800239A4A4FF0BC
:10149800FF30994240F0168106B0BDE8F087BDF8EC
:1014A8000A00DFF858C280B2385680B2ADF80200A0
:1014B800BDF8020080B203EB0020405D8DF800000B
:1014C800BDF8020080B203EB0020805D8DF80100BA
:1014D800BDF80A0080B21CF90000DFF824C280B20F
:1014E800ADF804000020ADF80600BDF8060080B293
:1014F8000F2806D9BDF80A00013080B2ADF80A00FD
:10150800A3E7BDF804E0BDF806901FFA8EFE9DF82B
:1015180000001FFA89F9BDF8088003EB0E2E14F9B4
:1015280009901FFA88F81EF809E07044BDF808E031
:101538001FFA8EFE02F80800BDF8080012F80EE047
:1015480012FA80F06FEA0E0E80F801E0BDF804E0B0
:10155800BDF806801FFA8EFE9DF801001FFA88F874
:10156800BDF8089003EB0E2E1CF908801FFA89F9C4
:101578001EF808E07044BDF808E01FFA8EFE01F876
:101588000900BDF8080011F80EE011FA80F06FEAC2
:101598000E0E80F801E0BDF80400BDF806E080B248
:1015A8009DF800901FFA8EFEBDF8088003EB00201E
:1015B80014F90EE012FA88F810F80E00BDF808E0E9
:1015C800A0EB090012FA8EFE88F80200BDF80800A8
:1015D8009EF802E012FA80F06FEA0E0E80F803E03F
:1015E800BDF80400BDF806E080B29DF801901FFA2E
:1015F8008EFEBDF8088003EB00201CF90EE011FAFE
:1016080088F810F80E00BDF808E0A0EB090011FA00
:101618008EFE88F80200BDF808009EF802E011FA74
:1016280080F06FEA0E0E80F803E0BDF80800043081
:1016380080B2ADF80800BDF80600013080B2ADF800
:10164800060052E7BDF80630BDF806209BB292B2FC
:1016580014F90290EA56530103EB02134FEA4912B8
:101668009B0202EB091203939202039B03921B1441
:10167800039A03F5006312141BB202F5006216F810
:10168800039012B217F802A049EA0A09B9F1030F48
:1016980011D1A2F5EF62A3F5E2634FF001080492BD
:1016A8000593049A059B0EFB02339B0003F15043FC
:1016B8004CF821300131BDF8063001339BB2ADF84A
:1016C8000630D6E652F8044B01332060E1E600BF4D
:1016D80008DA002010DA002092810020ECC90020EE
:1016E80092850020EFC90020920100200C00002004
:1016F800E4A90020E4B90020F0C9002000DA0020A5
:1017080020DA0020F8B5424A0020424B42491A60CC
:101718004FF05042414B1A6045000F46002301F537
:101728008071EDB20E461A460133140A2A44DBB220
:1017380007F8014B644292B2802B06F8014DF3D1B1
:1017480001308028E8D14FF480520021344840F617
:10175800EF0404F0A5FE4FF480520021314804F054
:101768009FFE30492E484FF6EF03002200F8012B68
:10177800A3F168020133B2F5877F9BB28CBF0022C8
:101788000122A3424FEA420201F8012B39D1264D2A
:101798004420264C2649A0F10803D8B203F03F03A1
:1017A8005A4243F080030428D2B251F8233002F1A0
:1017B800800251F82220A2EB030343F3072305F824
:1017C800013D04F8013BE6D11A4D44201A4CA0F122
:1017D8000803D8B203F03F035A4243F080030428B9
:1017E800D2B251F8233002F1800251F82220A2EB44
:1017F800030343F3072305F8013D04F8013BE6D151
:10180800F8BDB3F5EF7F8CBF00220122AEE700BF21
:10181800000008D0F0D1002092010020F0C900207B
:10182800E4A90020E4B90020F8D90020F8D9002064
:10183800186D009008DA002008DA00200C4A92F9A6
:101848000010137800290ADB0A49087838B10133F7
:10185800DBB213701B060AD500230B707047013BDF
:10186800DBB2012B13709EBF024B01221A70704726
:101878001C0000201D000020574B2DE9F74F1C8845
:10188800DFF87CB18034A4B21C80544B1A886032D3
:1018980092B21A804FEA122E514B70460EEB142C5E
:1018A80019880EF1800E5FFA8CF9E03189B219803F
:1018B800090A4C4B471A01EB122201EB142551FA85
:1018C8008CFCD2B2FFB202F14008EDB207F140063B
:1018D8005FFA8CFC53F82880A5EB000A53F82660C1
:1018E800A0EB14205FFA8AFA4644DFF81881C0B2E8
:1018F8003612803088F8006053F8276053F8227059
:10190800A2EB1422F61B384FD2B236123E700CF1FD
:10191800400753F82E60C1EB142E53F82770A9EB3B
:10192800010146F3C7180AF14006C9B209F1800956
:1019380053F826605FFA8EFE8BF80080F61B02F1E2
:10194800400753F8222053F827703E4401F140071E
:1019580053F8211053F82770F61B53F82E700EF128
:10196800400E06EBD676019653F825604035F61BF7
:10197800019F06EB67061D4F36123E7053F82C6028
:1019880053F82A70F61B711A8A1A53F8251053F85F
:101998002E5002EBD272294401EB62021449121252
:1019A8000A7053F8202053F829301249D31A124AE2
:1019B800107843F3072392F900200B70002A08DB04
:1019C8000E4A02EB002212F80800D35C8BF80000E4
:1019D8000B7003B0BDE8F08F30DA002032DA002057
:1019E80034DA00201875009037DA002039DA002040
:1019F8003ADA00203BDA00201C0000209201002087
:101A080038DA002036DA00201F4BDFF898C01F4A6A
:101A18002DE9F04F93F900B000241D4BDFF888E062
:101A280093F900A01B4B93F900901B4B93F90030DE
:101A38001F461A4B1A4801341EF8011B0232082CA3
:101A480003F1020300EB01211CF8010B11F80B5004
:101A580011F80A60124901EB002010F80910C05D66
:101A680006EB0008A0EB060002F8028C05EB010863
:101A7800A1EB050102F8010C03F8028C03F8011C24
:101A8800D8D1BDE8F08F00BF3ADA00205CEA002028
:101A980037DA002039DA002036DA00206CEA002034
:101AA8009201002044EA00203CEA0020074B4FF056
:101AB8007F40074A1968002310B5994200D110BD2C
:101AC80052F8044B01332060F7E700BF18000020EC
:101AD8003CE20020074B4FF07F40074A196800237B
:101AE80010B5994200D110BD52F8044B0133206063
:101AF800F7E700BF140000203CDA00202DE9F0478A
:101B080086B0A94FFFF79AFEA84CFFF7B5FEFFF77E
:101B18007BFF0023A64AADF80830ADF80A30A54B84
:101B2800A54993F90050A54B93F90060A44BBDF863
:101B38000A0080B2072824D90023A2489E4C4FF4FB
:101B4800F07E984619469A4D9F4EA04FDFF880C206
:101B58000360ADF80630BDF806309BB2B3F5007FE0
:101B6800C0F0E280B8F1000F00D0016001680023E6
:101B7800974A4FF0FF30994240F0108106B0BDE817
:101B8800F087BDF80A00DFF84CC280B2385680B240
:101B9800ADF80200BDF8020080B203EB0020405D02
:101BA8008DF80000BDF8020080B203EB0020805DD4
:101BB8008DF80100BDF80A0080B21CF90000DFF8BA
:101BC80018C280B2ADF804000020ADF80600BDF8D8
:101BD800060080B20F2806D9BDF80A00013080B28D
:101BE800ADF80A00A3E7BDF804E0BDF806901FFAB7
:101BF8008EFE9DF800001FFA89F9BDF8088003EBF6
:101C08000E2E14F909901FFA88F81EF809E070449E
:101C1800BDF808E01FFA8EFE02F80800BDF80800BB
:101C280012F80EE012FA80F06FEA0E0E80F801E06A
:101C3800BDF804E0BDF806801FFA8EFE9DF801008D
:101C48001FFA88F8BDF8089003EB0E2E1CF90880DF
:101C58001FFA89F91EF808E07044BDF808E01FFA79
:101C68008EFE01F80900BDF8080011F80EE011FA1F
:101C780080F06FEA0E0E80F801E0BDF80400BDF8B0
:101C880006E080B29DF800901FFA8EFEBDF808802D
:101C980003EB002014F90EE012FA88F810F80E0091
:101CA800BDF808E0A0EB090012FA8EFE88F80200E1
:101CB800BDF808009EF802E012FA80F06FEA0E0EF6
:101CC80080F803E0BDF80400BDF806E080B29DF896
:101CD80001901FFA8EFEBDF8088003EB00201CF966
:101CE8000EE011FA88F810F80E00BDF808E0A0EB35
:101CF800090011FA8EFE88F80200BDF808009EF867
:101D080002E011FA80F06FEA0E0E80F803E0BDF8E9
:101D18000800043080B2ADF80800BDF806000130B4
:101D280080B2ADF8060052E7BDF80630BDF80620CF
:101D38009BB292B2EB56A2561B0412040393039B68
:101D48000392039A1B14121403F5EC6302F5006264
:101D58001BB212B216F8039017F802A049EA0A0952
:101D6800B9F1030F13D1A2F5EF62A3F5E2634FF0C7
:101D7800010804920593049A059B0EFB02339B000D
:101D880003F1504303F500234CF821300131BDF82D
:101D9800063001339BB2ADF80630DCE652F8044B4E
:101DA80001332060E7E600BF54EA00205CEA002027
:101DB8009281002038DA0020928500203BDA00204A
:101DC8009201002018000020E4A90020E4B90020B6
:101DD8003CE200204CEA00206CEA00202DE9F047A4
:101DE80086B0A84FFFF72AFDA74CFFF745FDFFF780
:101DF8000BFE0023A54AADF80830ADF80A30A44B15
:101E0800A44993F90050A44B93F90060A34BBDF883
:101E18000A0080B2072824D90023A1489D4C4FF41A
:101E2800F07E98461946994D9E4E9F4FDFF87CC22A
:101E38000360ADF80630BDF806309BB2B3F5007FFD
:101E4800C0F0E280B8F1000F00D001600168002303
:101E5800964A4FF0FF30994240F00E8106B0BDE837
:101E6800F087BDF80A00DFF848C280B2385680B261
:101E7800ADF80200BDF8020080B203EB0020405D1F
:101E88008DF80000BDF8020080B203EB0020805DF1
:101E98008DF80100BDF80A0080B21CF90000DFF8D7
:101EA80014C280B2ADF804000020ADF80600BDF8F9
:101EB800060080B20F2806D9BDF80A00013080B2AA
:101EC800ADF80A00A3E7BDF804E0BDF806901FFAD4
:101ED8008EFE9DF800001FFA89F9BDF8088003EB13
:101EE8000E2E14F909901FFA88F81EF809E07044BC
:101EF800BDF808E01FFA8EFE02F80800BDF80800D9
:101F080012F80EE012FA80F06FEA0E0E80F801E087
:101F1800BDF804E0BDF806801FFA8EFE9DF80100AA
:101F28001FFA88F8BDF8089003EB0E2E1CF90880FC
:101F38001FFA89F91EF808E07044BDF808E01FFA96
:101F48008EFE01F80900BDF8080011F80EE011FA3C
:101F580080F06FEA0E0E80F801E0BDF80400BDF8CD
:101F680006E080B29DF800901FFA8EFEBDF808804A
:101F780003EB002014F90EE012FA88F810F80E00AE
:101F8800BDF808E0A0EB090012FA8EFE88F80200FE
:101F9800BDF808009EF802E012FA80F06FEA0E0E13
:101FA80080F803E0BDF80400BDF806E080B29DF8B3
:101FB80001901FFA8EFEBDF8088003EB00201CF983
:101FC8000EE011FA88F810F80E00BDF808E0A0EB52
:101FD800090011FA8EFE88F80200BDF808009EF884
:101FE80002E011FA80F06FEA0E0E80F803E0BDF807
:101FF8000800043080B2ADF80800BDF806000130D2
:1020080080B2ADF8060052E7BDF80630BDF80620EC
:102018009BB292B2EB56A2561B0412040393039B85
:102028000392039A1B14121403F5EC6302F5006281
:102038001BB212B216F8039017F802A049EA0A096F
:10204800B9F1030F11D1A2F5EF62A3F5E2634FF0E6
:10205800010804920593049A059B0EFB02339B002A
:1020680003F150434CF821300131BDF806300133FB
:102078009BB2ADF80630DEE652F8044B013320601F
:10208800E9E600BF54EA00205CEA002092810020C3
:1020980038DA0020928500203BDA002092010020E7
:1020A80014000020E4A90020E4B900203CDA002054
:1020B8004CEA00206CEA0020204B4420204A2149A9
:1020C80030B51A604FF050421F4B204D204C1A601B
:1020D800A0F10803D8B203F03F035A4243F080034B
:1020E8000428D2B251F8233002F1800251F822209C
:1020F800A2EB030343F3072305F8013D04F8013B72
:10210800E6D1144D4420144CA0F10803D8B203F0D2
:102118003F035A4243F080030428D2B251F82330D7
:1021280002F1800251F82220A2EB030343F30723B4
:1021380005F8013D04F8013BE6D130BD3CE2002042
:10214800000008D0187500903CDA002044EA00200E
:1021580044EA002054EA002054EA00200D490E4ABF
:102168000878138878B101331BB2B3F5EE7F13807A
:1021780001DD00230B70094BB2F9002053F822202F
:10218800074B1A607047023B1BB2012B1380F2DC2D
:102198000123EFE7280000208CFA0020187D00902A
:1021A80088FA00204D4B2DE9F0471C888034A4B2F2
:1021B8001C804B4B1A88603292B21A804FEA122E5A
:1021C800484B70460EEB142A19880EF1800E5FFA00
:1021D8008AF6E03189B21980090A434B471A01EBA4
:1021E800122201EB142C51FA8AFAD2B2FFB202F190
:1021F80040085FFA8CFC07F140055FFA8AFA53F849
:102208002880ACEB000953F82550A0EB14205FFAA6
:1022180089F94544DFF8E880C0B22D12803088F88B
:10222800005053F8275053F82270A2EB1422ED1BEC
:102238002E4FD2B22D123D7053F82E50C1EB142EF2
:102248002B4F711A45F3D7155FFA8EFEC9B2803647
:102258003D7009F140050AF1400753F8255053F83D
:102268002770ED1B02F1400753F8222053F827701E
:102278003D4401F1400753F8211053F82770ED1B36
:1022880053F82E700EF1400E05EBD57853F82C500C
:102298000CF1400CED1B174F05EB68052D123D7036
:1022A80053F82A5053F82970ED1B691A53F82E5029
:1022B8008A1A53F82C1002EBD272294401EB6202FD
:1022C8000D4912120A7053F8202053F82630D31AF9
:1022D8000A4A1B121370BDE8F08700BF7CEA002091
:1022E8007EEA002080EA00209884009083EA00209B
:1022F80084EA002085EA002086EA002087EA002098
:1023080082EA00201F4BDFF898C01F4A2DE9F04FE2
:1023180093F900B000241D4BDFF888E093F900A082
:102328001B4B93F900901B4B93F900301F461A4B37
:102338001A4801341EF8011B0232082C03F102036B
:1023480000EB01211CF8010B11F80B5011F80A6081
:10235800124901EB002010F80910C05D06EB0008D7
:10236800A0EB060002F8028C05EB0108A1EB0501C1
:1023780002F8010C03F8028C03F8011CD8D1BDE85F
:10238800F08F00BF86EA0020AEFA002083EA002022
:1023980085EA002082EA0020BEFA0020920100208F
:1023A80096FA00208EFA0020074B4FF07F40074A2C
:1023B8001968002310B5994200D110BD52F8044B9A
:1023C80001332060F7E700BF2400002088F20020D6
:1023D800074B4FF07F40074A1968002310B5994210
:1023E80000D110BD52F8044B01332060F7E700BF5D
:1023F8002000002088EA00202DE9F04F87B0AF4F79
:10240800FFF7ACFEAE4CFFF7CDFEFFF77BFF0023D6
:10241800AC4AADF80830ADF80A30AB4BAB4993F98C
:102428000050AB4B93F90060AA4BBDF80A0080B28C
:1024380007282DD9A84B0021A84D4FF4F07A188809
:102448000C46A74B00F5E260A04F1B6880B2DFF88E
:1024580098E203F50063DFF89482DFF888921FFAA8
:1024680083FC2960ADF80610BDF806309BB2B3F5C1
:10247800007FC0F0E08001B12C6029680023994AF0
:102488004FF0FF30994240F0138107B0BDE8F08F5C
:10249800BDF80A00DFF858C280B2385680B2ADF8ED
:1024A8000200BDF8020080B203EB0020405D8DF809
:1024B8000000BDF8020080B203EB0020805D8DF8BB
:1024C8000100BDF80A0080B21CF90000DFF824C240
:1024D80080B2ADF804000020ADF80600BDF8060093
:1024E80080B20F2806D9BDF80A00013080B2ADF8D5
:1024F8000A009AE7BDF804E0BDF806901FFA8EFEC0
:102508009DF800001FFA89F9BDF8088003EB0E2E2C
:1025180014F909901FFA88F81EF809E07044BDF80C
:1025280008E01FFA8EFE02F80800BDF8080012F84D
:102538000EE012FA80F06FEA0E0E80F801E0BDF8A6
:1025480004E0BDF806801FFA8EFE9DF801001FFA10
:1025580088F8BDF8089003EB0E2E1CF908801FFAC6
:1025680089F91EF808E07044BDF808E01FFA8EFEED
:1025780001F80900BDF8080011F80EE011FA80F022
:102588006FEA0E0E80F801E0BDF80400BDF806E021
:1025980080B29DF800901FFA8EFEBDF8088003EB0C
:1025A800002014F90EE012FA88F810F80E00BDF8B1
:1025B80008E0A0EB090012FA8EFE88F80200BDF8C8
:1025C80008009EF802E012FA80F06FEA0E0E80F81A
:1025D80003E0BDF80400BDF806E080B29DF8019064
:1025E8001FFA8EFEBDF8088003EB00201CF90EE0F0
:1025F80011FA88F810F80E00BDF808E0A0EB090001
:1026080011FA8EFE88F80200BDF808009EF802E074
:1026180011FA80F06FEA0E0E80F803E0BDF80800AA
:10262800043080B2ADF80800BDF80600013080B271
:10263800ADF8060052E7BDF80630BDF806209BB29B
:1026480092B2BE561F4AD256530103EB02137201CF
:102658009B0202EB061203939202039B039200EB88
:102668002343039A1BB20CEB22421EF8036012B2FA
:1026780018F802B046EA0B06032E12D1A2F5EF6253
:10268800A3F5E263012104920593049A059B0AFBD2
:1026980002339B0003F1504303F5002349F824302B
:1026A8000134BDF8063001339BB2ADF80630DBE6E5
:1026B80052F8044B01332060E4E600BFA6FA00207C
:1026C800AEFA00209281002084EA00209285002042
:1026D80087EA0020920100208CFA002024000020C4
:1026E80088FA002088F20020E4A90020E4B900203C
:1026F8009EFA0020BEFA00202DE9F04F87B0AE4FB9
:10270800FFF72CFDAD4CFFF74DFDFFF7FBFD002358
:10271800AB4AADF80830ADF80A30AA4BAA4993F98C
:102728000050AA4B93F90060A94BBDF80A0080B28B
:1027380007282DD9A74B0021A74D4FF4F07A188808
:102748000C46A64B00F5E2609F4F1B6880B2DFF88D
:1027580094E203F50063DFF89082DFF884921FFAB1
:1027680083FC2960ADF80610BDF806309BB2B3F5BE
:10277800007FC0F0E08001B12C6029680023984AEE
:102788004FF0FF30994240F0118107B0BDE8F08F5B
:10279800BDF80A00DFF854C280B2385680B2ADF8EE
:1027A8000200BDF8020080B203EB0020405D8DF806
:1027B8000000BDF8020080B203EB0020805D8DF8B8
:1027C8000100BDF80A0080B21CF90000DFF820C241
:1027D80080B2ADF804000020ADF80600BDF8060090
:1027E80080B20F2806D9BDF80A00013080B2ADF8D2
:1027F8000A009AE7BDF804E0BDF806901FFA8EFEBD
:102808009DF800001FFA89F9BDF8088003EB0E2E29
:1028180014F909901FFA88F81EF809E07044BDF809
:1028280008E01FFA8EFE02F80800BDF8080012F84A
:102838000EE012FA80F06FEA0E0E80F801E0BDF8A3
:1028480004E0BDF806801FFA8EFE9DF801001FFA0D
:1028580088F8BDF8089003EB0E2E1CF908801FFAC3
:1028680089F91EF808E07044BDF808E01FFA8EFEEA
:1028780001F80900BDF8080011F80EE011FA80F01F
:102888006FEA0E0E80F801E0BDF80400BDF806E01E
:1028980080B29DF800901FFA8EFEBDF8088003EB09
:1028A800002014F90EE012FA88F810F80E00BDF8AE
:1028B80008E0A0EB090012FA8EFE88F80200BDF8C5
:1028C80008009EF802E012FA80F06FEA0E0E80F817
:1028D80003E0BDF80400BDF806E080B29DF8019061
:1028E8001FFA8EFEBDF8088003EB00201CF90EE0ED
:1028F80011FA88F810F80E00BDF808E0A0EB0900FE
:1029080011FA8EFE88F80200BDF808009EF802E071
:1029180011FA80F06FEA0E0E80F803E0BDF80800A7
:10292800043080B2ADF80800BDF80600013080B26E
:10293800ADF8060052E7BDF80630BDF806209BB298
:1029480092B2BE561E4AD256530103EB02137201CD
:102958009B0202EB061203939202039B039200EB85
:102968002343039A1BB20CEB22421EF8036012B2F7
:1029780018F802B046EA0B06032E10D1A2F5EF6252
:10298800A3F5E263012104920593049A059B0AFBCF
:1029980002339B0003F1504349F824300134BDF859
:1029A800063001339BB2ADF80630DDE652F8044B31
:1029B80001332060E6E600BFA6FA0020AEFA002048
:1029C8009281002084EA00209285002087EA002076
:1029D800920100208CFA00202000002088FA0020B4
:1029E80088EA0020E4A90020E4B900209EFA00202B
:1029F800BEFA002038B5354A0021354B40F6EF04C1
:102A080034481A604FF05042334B1A604FF48052EA
:102A180003F046FD4FF480520021304803F040FD9A
:102A28002E492C484FF6EF03002200F8012BA3F1A2
:102A380068020133B2F5877F9BB28CBF0022012266
:102A4800A3424FEA420201F8012B39D1244D442018
:102A5800244C2549A0F10803D8B203F03F035A4299
:102A680043F080030428D2B251F8233002F18002E7
:102A780051F82220A2EB030343F3072305F8013D95
:102A880004F8013BE6D1194D4420194CA0F1080384
:102A9800D8B203F03F035A4243F080030428D2B26D
:102AA80051F8233002F1800251F82220A2EB0303EF
:102AB80043F3072305F8013D04F8013BE6D138BD8F
:102AC800B3F5EF7F8CBF00220122AEE7000008D0EB
:102AD80088F20020E4A9002088EA0020E4B9002058
:102AE80096FA002096FA002098840090A6FA002012
:102AF800A6FA00207047FEE7FEE7FEE7FEE770470C
:102B08007047704700F0D2BF704710B4046900895D
:102B1800A4465DF8044B604710B4C4680089A44615
:102B28005DF8044B6047183000F023B890B14A684C
:102B38000B6842600A8903600281CA68C2600A6938
:102B480002614A6900624261044AC261044A8261C0
:102B580003B118474FF0FF30704700BF132B0090A8
:102B6800212B009010B4D0E90140A4465DF8044B35
:102B780060470A460123A821FFF7F4BF08B50122E0
:102B8800074BC3E900219A6000221946DA604FF624
:102B9800FF7203F0B9FA003818BF0120404208BD9F
:102BA800D0FA002008B50222084BC3E90021012110
:102BB8000022C3E902124FF6FF72194603F0A4FA85
:102BC800003818BF0120404208BD00BFD0FA0020DD
:102BD800D1E9033210B513434A690B4C13438A6990
:102BE8001343CA691343042222600A6821466260BB
:102BF8000122C4E902234FF6FF7203F085FA003878
:102C080018BF0120404210BDD0FA002008B5084B7B
:102C1800C3E9002108210022C3E902124FF6FF721E
:102C2800194603F071FA003818BF0120404208BD68
:102C3800D0FA002008B503F086FA003818BF012042
:102C4800404208BD70B50C4609680546FFF796FF77
:102C580010B14FF0FF3070BD00F034FF064600F0B1
:102C680031FF8642FBD021682846FFF79BFF0028EA
:102C7800EFD12846D4E90012FFF7C8FF0028E8D1B1
:102C880021462846FFF7A4FF0028E2D1A16828467C
:102C9800FFF7D0FF003818BF01204042DBE70000F3
:102CA800094B012213B553F82040084BA1B253F841
:102CB8002000019001F0D0FA0198214601F02CFA89
:102CC800002002B010BD00BF988C0090A08C00902E
:102CD8000023012210B5416004460362C0E90232B4
:102CE800C0E90433C0E9063301F0E8FB014608B146
:102CF800012010BD204601F016FD01460028F7D13D
:102D0800204601F036FD003818BF0120F1E7000029
:102D1800A44BA5482DE9F04F036093B0A34B1C6862
:102D2800002C40F0CF8001221A6001F0F7FC002847
:102D380040F0C8809E4D4FF0120802270426D5F8AF
:102D4800E0300DA99B4843F00803C5F8E030D5F8FA
:102D5800E03003F008030A930A9BD5F8E03043F00B
:102D68000803C5F8E030D5F8E0300F9403F0080305
:102D78000B930B9B4FF48053CDE91076CDE90D38BA
:102D880001F0E0F84FF400530DA98A481196CDE9F7
:102D98000D38CDE90F4701F0D5F8D5F8F43043F0F8
:102DA8008003C5F8F430D5F8F43003F080030C93B1
:102DB8000C9BD5F89C3043F08003C5F89C30D5F8BF
:102DC8009C3023F08003C5F89C3002F05DFB00289E
:102DD80072D0794B40F6F6162246A14603EB500313
:102DE8004FF0100ADFF8D8B1B3FBF0F06FF01D0315
:102DF80000EB4005A6EB800601465B1B26EAE6765B
:102E080023EAE37300936D4B1B6888464FF0000C70
:102E180040F27935CDF804C00CF1010CA8455ED913
:102E28000027BE46009DBD4253D8BE4251D39245AD
:102E38004FD0142505FB03FA0133019D0BEB0A095A
:102E48007F2B4BF80A20C9E9015E3FD95B4A136022
:102E58005A4B42F210725A4900271B6803924FF0EE
:102E6800FF3205934300019203F13205C3F5905BED
:102E7800A3F511530BF10C0B09950A3B0293059B23
:102E88009F4238D1019B7F2B16D81421019A4C4BB5
:102E98004A4399189B580C7C44EA03744B681B05F9
:102EA80003F470031C438B681B0403F470231C4356
:102EB800CB681B029BB21C4321463B48FFF708FF27
:102EC80000286CD1002013B0BDE8F08F92464FF077
:102ED80001090EF1010E0F44BEF1100FA2D1BCF191
:102EE800100F884494D101320144102A8DD1B9F1D0
:102EF800000FABD1ACE70B684FF0000C099D03FB4A
:102F08000003029E1D441E440495ABEB030508967E
:102F18006D000095049D41F25C22CDF818C0A5F122
:102F280032060CF1010C95422ED9B0EB960F2BD23C
:102F3800089E4FF0000EDDF810802E44DDF800905A
:102F480006F2836A41F24702CDF81CE00EF1010E49
:102F5800924512D8B8F57A6F0FD340450DD236EAAC
:102F6800260A28BFCA46039A924506D2069ACDF881
:102F78000CA00A61079A0197CA60BEF5807F1E44BB
:102F8800A9EB03099844DBD1009ABCF5807F1D4466
:102F9800A2EB03020092BED1013714316FE76FF044
:102FA800070090E7001C0058E8040120E0FA002020
:102FB80000440258000C025800CA9A3BE40401205D
:102FC800E4FA00201FB54FF47A7400920A460146CD
:102FD8000848CDE90134012301F0C2FA40B105489F
:102FE80001F09FFB04280CBF6FF065006FF0030031
:102FF80004B010BDE804012018B9034BDB680B606E
:1030080070476FF0010070473C05012010B9034B71
:10301800996070476FF00100704700BF3C050120C0
:1030280018B9034B1B680B6070476FF001007047BD
:103038003C05012018B9034B5B680B6070476FF0C3
:10304800010070473C050120F0B50C4D46013427BE
:1030580005EB4010AD59846805FB0212084807FBD0
:103068000400816CC46D21B954F8222000201A6034
:10307800F0BD34F8122092B2F8E700BF3C050120F9
:10308800C4050120F0B50B4D4601342705EB40106F
:10309800AD59846805FB0212074807FB0400816CE0
:1030A800C46D19B944F822300020F0BD9BB224F851
:1030B8001230F9E73C050120C40501202DE9F84F3D
:1030C8001D460B9B80460E4603EB02090D4B14462A
:1030D80003EB401A4C4512D00A9B374603EB060B0C
:1030E80009E02B68394622464046FFF7CBFFDAF85D
:1030F800103001371D445F45F3D10134EAE7002061
:10310800BDE8F88F3C0501202DE9F04F1C7B4FF0FE
:103118003409DD7A85B024041F7D1E7E04EB052466
:103128009D7A3F0493F81DC02C445D7B3604DFF87C
:10313800048104EB056ADD7C07EB05279D7C2F44A1
:103148005D7D07EB0567DD7D06EB05269D7D2E443D
:103158005D7E06EB05661D7F05EB0C254FEA401CDE
:1031680008EB401058F80C40D0F810E004FB0212AD
:1031780080682D4909FB0011C96D0EFB0219A5F1E4
:103188002002072A19D9A5F11002082A34BF4FF0E6
:10319800020B4FF0010BED08721EE0447D4305FB66
:1031A80002A44FF0000A1C446B42204D0393B24521
:1031B80006D1002005B0BDE8F08F4FF0000BEAE71C
:1031C800D8F80C3019489A1E534253414FF48032B4
:1031D8005B00C5E901230023FF22EB60EB642A654D
:1031E800C5E9113B124B2B6000F078FD88B901212D
:1031F800284600F047FE60B901234A462146284682
:1032080000933B4600F0A7FD18B93221284600F08C
:10321800BCFDD8F800300AF1010AD8F8102002FBEA
:103228000399039B1C44C2E7C40501205C050120E7
:10323800001000523C0501202DE9F3411F46244BA4
:1032480016460D4603EB4010C368022BDDE908243F
:1032580039D1C4F3451040F2031EC4F3C42140F22F
:103268000F2C0EFB00F004F01F040CFB01F12130C1
:103278000CFB04F41731800917348909000240EA6D
:10328800014040EA941040F07F44DFF84C804FF44E
:103298004031C8E901130F4B4046C8F80C20C8F864
:1032A800003000F01BFD80B933462A4621464046CF
:1032B800009700F050FD40B93221404602B0BDE809
:1032C800F04100F062BD0023DFE702B0BDE8F08105
:1032D8003C050120001000525C050120F7B51C4692
:1032E800104B0D46460103EB40114FF0340C9B592F
:1032F8008F680E6902FB03520B490CFB0711C96D5D
:1033080006FB02112A19934238BF5C1B089B002553
:103318000193224601230095FFF78EFF284603B04C
:10332800F0BD00BF3C050120C4050120F0B5114CDB
:10333800450185B04FF0340C04EB401664593569EB
:1033480002FB0411B768013C03950B4D0CFB0755B4
:10335800039FED6D07FB01517568D6180094AE42C6
:1033680088BFAB1A0A9A01920122FFF765FF002075
:1033780005B0F0BD3C050120C4050120F7B51D4688
:1033880046010D4B342703EB40149B59266902FB79
:103398000311A4685B1B094A07FB0422D46D099A30
:1033A800009301922A46089B06FB0141FFF744FF60
:1033B800002003B0F0BD00BF3C050120C40501207A
:1033C80010B4DFF844C00024C0E900C4C0E90244D6
:1033D8000461282444612A24C46101F135044A3176
:1033E8004462C162092181610B21016251180D32C9
:1033F800816202634FF6FF72828680F836205DF89C
:10340800044B01F05FBA00BF00100050F0B5156919
:103418008FB017684FF0FF0C96684FF4C06E546871
:10342800D3680595002552690294E41B04939B1BFD
:103438000A920A4601A9019703960B940C93ADF8DA
:1034480034508DF83650CDE906C54FF0070CCDE95C
:1034580008EC01F0A3FA0FB0F0BD00002DE9F04F21
:103468000129A7B098464FF000031546DDF8C09033
:10347800019300F23C81002840F03981022A00F0D3
:10348800CA80002A40F0338104239C4F4FF0020A7F
:103498009B4C0E269B4A1CA9DFF898B29A48C7E9AC
:1034A80003539A4BC7E900891A60D4F8E420984B73
:1034B80042F00802C3F800B0C4F8E420D4F8E420CD
:1034C80002F008020392039AD4F8E02042F48072D2
:1034D800C4F8E020D4F8E02002F480720492049A40
:1034E800D4F8E02042F40072C4F8E020D4F8E020D8
:1034F80002F400720592059AD4F8E02042F4806242
:10350800C4F8E020D4F8E02002F480620692069A1B
:10351800D4F8E02042F08002C4F8E020D4F8E0209B
:1035280002F080020792079AD4F8E02042F00802DD
:10353800C4F8E020D4F8E020209602F008020892AF
:10354800089A4DF20322CDE91C2A0022CDE91E2A51
:1035580000F0F8FC4FF6FF716E481C911CA92096EC
:1035680000F0F0FCFF216C4820961C911CA900F08B
:10357800E9FC002240F20221684820968026CDE925
:103588001E2ACDE91C1A1CA94FF0010A00F0DAFC2A
:103598001CA96348CDE91C6A00F0D4FC52463146A8
:1035A8005F4800F059FED4F88C20594B42F00802CD
:1035B8001B68C4F88C20D4F88C205B4522F00802E4
:1035C800C4F88C2013D1D4F8D43043F01003C4F8D5
:1035D800D430D4F8D43003F010030293029BE36F85
:1035E80043F01003E367E36F23F01003E3674D4BE9
:1035F80010A910934C4B149370230DEB0300ADF8F6
:103608004830FFF793FA002807DA6FF004042046E1
:1036180027B0BDE8F08F134637E701A91CA8FFF7CC
:1036280082FA0028F1DB019B512B63D13748FCF764
:103638007DFF10B16FF00304E9E74A46414633487D
:10364800FFF7BEFE06460028F4D100F0B1F80446A4
:103658000028EFD14FF05043014616AA1A95334D72
:103668001B93CDE91608CDE9180928484FF0010841
:10367800FFF7CCFE2E4B002828462B6018BF6FF0B2
:10368800030402F07AFD1E4B0BA92348D3F8E0206F
:1036980042F48062C3F8E020D3F8E02002F48062AC
:1036A8000992099AD3F8F02042F00202C3F8F020F8
:1036B800D3F8F030CDF82C8003F002030A930A9B6C
:1036C8000223CDE90C360323CDE90E8300F03AFC42
:1036D80004232846AE606B604CF25033C5E905669A
:1036E800C5E9033602F0E2FDC7F818808FE76FF0EE
:1036F80001048CE76FF0060489E700BF3C05012050
:10370800004402580010005000200258C40501204F
:103718005C0501200024025800280258001C0258A9
:10372800000C0258192D0090CD2F00906C06012036
:1037380000040140001000524FF4887307B50022BE
:1037480000934FF4F073FFF789FE03B05DF804FBB4
:1037580030B5154D4FF0010C144C4FF4006E89B084
:1037680002232C60002407938462C0E903124022DC
:103778000421C0E901C46A614FF4C072C0E906249B
:103788004FF48052C0E908E20722CDE903126944E8
:10379800CDE90132CDE9053302F08EFC001B18BFDC
:1037A800012009B030BD00BFB806012040410052D9
:1037B800F0B505468DB0002840F0CB80684B032754
:1037C80007A96848D3F8D420674C42F48052674E62
:1037D800C3F8D420D3F8D42002F480520092009A7F
:1037E800D3F8D42042F00102C3F8D420D3F8D4206F
:1037F80002F001020192019AD3F8E02042F0080297
:10380800C3F8E020D3F8E02002F008020292029AFE
:10381800D3F8E02042F01002C3F8E020D3F8E0200B
:1038280002F010020392039AD3F8E02042F020023B
:10383800C3F8E020D3F8E02002F020020492049AB2
:10384800D3F8E02042F04002C3F8E020D3F8E020AB
:1038580002F040020592059AD3F8E02042F0800277
:10386800C3F8E0200222D3F8E03003F08003069387
:10387800069B0123CDE908230C23CDE90A734CF2FA
:103888000373079300F05EFB4FF6837307A938486C
:10389800079300F057FB4FF63F0307A935480793F6
:1038A80000F050FB48F2331307A93348079300F0A0
:1038B80049FBE02307A93148079300F043FB4FF089
:1038C80080414FF0805340F2022040F608023463F2
:1038D8002664C4E90113C4E9050280232022204696
:1038E800A362C4E90723C4E903354FF00072244BEF
:1038F80062622360C4E90B55C4E90D5501F0EAF88A
:10390800204601F078F82A460F217A2000F000F9C5
:103918007A2000F02FF9102204213046FFF718FF13
:10392800D0B918490823C1E9003740F20363086198
:10393800C1E902303023C1E905304FF40073304645
:10394800CB61FFF77FF9002818BF6FF004000DB0B6
:10395800F0BD6FF00100FAE74FF0FF30F7E700BF66
:1039680000440258000C0258EC060120B806012059
:10397800001002580014025800180258001C02587F
:10398800400000525807012018491948D1F88830DA
:1039980043F4700310B5C1F88830164B1A6842F02A
:1039A80001021A6000221A611C68204018609A619E
:1039B800DA611A629A62DA621A635A639A63DA639C
:1039C8001A645A64186820F4802018601A660A4B32
:1039D8001B681B0C1B04B3F1005F03D2074B0122C9
:1039E800C3F808214FF010438B6010BD00ED00E0D4
:1039F8007FEDF6EA004402580010005C0080005198
:103A08007047000038B50F4B05461A780AB90120EF
:103A180038BD4FF47A73B3FBF2F30B4A1068B0FB6E
:103A2800F3F000F0B5F804460028F0D10F2DEED8D9
:103A3800024629464FF0FF3000F06AF8034B204653
:103A48001D60E5E7340000202C000020380000202D
:103A580010B5032000F04AF801F02CFB0F49104A7A
:103A68008B69C3F30323D35C03F01F03D8408B692E
:103A780003F00F03D35C0B4A03F01F0320FA03F390
:103A88001360094B18600F20FFF7BCFF044618B9F4
:103A9800FFF7B6FF204610BD0124FBE7004402589B
:103AA800D48C0090300000202C000020034A044BE6
:103AB80011681B780B441360704700BF780701201A
:103AC80034000020014B1868704700BF78070120B8
:103AD800014B1868000C70470010005C024A136A1A
:103AE80043F00103136270470004005807490302BA
:103AF800CA6803F4E06322F4E0621204120C134370
:103B080043F0BF6343F40033CB60704700ED00E03F
:103B1800164B30B5DC68C4F30224C4F10703251D35
:103B2800042B28BF0423062D4FF0FF358CBF033C20
:103B3800002405FA03F3002805FA04F521EA030333
:103B480022EA050203FA04F343EA02034FEA0313E5
:103B5800DBB206DB00F1604000F5614080F800331D
:103B680030BD00F00F00024A1354F9E700ED00E001
:103B780014ED00E0002807DB0123410900F01F00D5
:103B8800024A834042F82130704700BF00E100E05C
:103B98000138B0F1807F0BD24FF0E023054AF021C5
:103BA8005861002082F82310072298611A61704733
:103BB8000120704700ED00E0BFF35F8F044B5A6AA5
:103BC80022F480325A620022C3F89420704700BF62
:103BD80000ED00E0064B40F00100C3F894005A6A7B
:103BE80042F480325A62BFF34F8FBFF36F8F704732
:103BF80000ED00E04378144A10B5C2F89830017817
:103C0800E9B14368C2F89C30C37A047B1B0643EAD7
:103C180004730B43817A43EAC143417B43EA8143FE
:103C2800817B43EA4143C17B43EA0143417A43EA4A
:103C38000123017A43EA4103C2F8A03010BDC2F85B
:103C48009C10C2F8A010F9E700ED00E070B5046818
:103C5800049D666C45EA034306F0404633436364BB
:103C68004368E263B3F5403F30D185681DB1012D4B
:103C780003D121F07F41A16370BD022D01F47F03C0
:103C880001F47F40CAB207D1D90C800AC90241EABF
:103C9800401141EAD201EEE7032D01F07F410AD13C
:103CA800DB0CC00A9B02C90F43EA401343EAD20364
:103CB80043EAC131DFE71B0D000B1B02090F43EA82
:103CC800001343EA121343EA0131D4E7B3F5802F16
:103CD80001D16161D0E7E160CEE7704710B50446D5
