:020000040800F2
:1000000000000824352B0008552A0008572A00084C
:10001000592A00085B2A00085D2A00080000000039
:10002000000000000000000000000000852B000818
:100030005F2A000800000000852B0008612A0008E4
:10004000852B0008852B0008852B0008852B0008D0
:10005000852B0008852B0008852B0008852B0008C0
:10006000852B0008852B0008852B0008852B0008B0
:10007000852B0008852B0008852B0008852B0008A0
:10008000852B0008852B0008852B0008852B000890
:10009000852B0008852B0008852B0008852B000880
:1000A000852B0008852B0008852B0008852B000870
:1000B000852B0008672A0008852B0008852B00087F
:1000C000852B0008852B0008852B0008852B000850
:1000D000852B0008852B0008852B0008692A00085D
:1000E000652A0008852B000800000000852B000809
:1000F000852B0008852B0008852B0008852B000820
:10010000852B0008852B0008852B0008852B00080F
:10011000852B0008852B0008852B0008852B0008FF
:10012000852B00086B2A0008852B0008852B00080A
:100130006D2A0008852B0008852B0008852B0008F8
:1001400000000000000000000000000000000000AF
:10015000852B0008852B0008852B0008852B0008BF
:10016000852B0008852B0008852B0008852B0008AF
:10017000852B0008852B0008852B0008852B00089F
:10018000852B0008852B0008852B0008852B00088F
:10019000852B0008852B0008852B0008852B00087F
:1001A000852B0008852B0008852B0008852B00086F
:1001B000852B0008852B0008852B0008852B00085F
:1001C000852B0008852B0008852B0008852B00084F
:1001D000852B0008852B0008852B0008852B00083F
:1001E000852B0008852B0008852B0008852B00082F
:1001F000852B0008852B0008852B0008852B00081F
:10020000852B0008852B0008852B0008852B00080E
:10021000852B0008852B0008852B0008852B0008FE
:10022000852B0008852B0008712A000800000000BB
:10023000852B0008852B000800000000852B000896
:10024000852B0008852B00086F2A0008852B0008E5
:10025000852B0008852B0008852B0008852B0008BE
:10026000852B0008852B0008852B0008852B0008AE
:10027000852B0008852B0008852B00080000000056
:10028000852B0008852B0008852B00080000000046
:0802900000000000852B0008AE
:1002980010B5054C237833B9044B13B10448AFF3B8
:1002A80000800123237010BD3C00002400000000E2
:1002B8009863000808B5034B1BB103490348AFF323
:1002C800008008BD0000000040000024986300087A
:1002D80008B572B6012002F01DFDFEE770B59EB0AC
:1002E8004FF0504503F074FC40F201130BA8ADF831
:1002F8002C306A4BCDE90C534FF480330E9303F046
:1003080085FC042003F072FC654B5A6912F4003234
:1003180011D1BFF34F8FBFF36F8FC3F85022BFF3D4
:100328004F8FBFF36F8F5A6942F400325A61BFF39F
:100338004F8FBFF36F8F5A4A536913F4803323D119
:10034800C2F88430BFF34F8FD2F8803043F6E074A0
:10035800C3F3C900C3F34E335B0103EA0406014645
:1003680046EA81750139C2F86052F9D2203B13F18F
:10037800200FF2D1BFF34F8F536943F48033536199
:10038800BFF34F8FBFF36F8F03F06EFB022004F0B3
:100398004DFB00230193434BDA6A22F00102DA6233
:1003A800DB6A03F0010301933F4B9A6942F4404230
:1003B8009A619A6902F440420192019A9A699404F6
:1003C800FCD54FF4803301250520A0210222042406
:1003D800082618921A9219941B96CDE90B530023FC
:1003E800CDE916010BA80E9312931D931C93CDE92A
:1003F800142204F03FFB08B1FFF76AFF3F220323F2
:100408002146CDE9032340234FF48062CDE9050658
:1004180003A8CDE90733CDE9092304F079FE0446A2
:100428000028E9D1214B1A6842F080021A60D3F8FB
:10043800F42042F00202C3F8F420D3F8F43003F0B9
:1004480002030293029B03F055FB2946204603F062
:10045800BDF9174802F088FA204602F0B5FA4FF0C5
:1004680050434FF07F41134A43F8041B9342FBD19A
:1004780011490022114804F02AFA114B4FF050425A
:10048800C3F8AC2001225A6201F0EEF801F07CFDBD
:1004980002F018FA00F04CF9FEE700BF180000035C
:1004A80000ED00E0000400580048025800440258DB
:1004B800508B0008000010D0000008D00805012467
:1004C80000100050164802680132B2F5FA7F30B5C4
:1004D80002601AD913490B88B3F5C04F16D2124CD3
:1004E80025789DB180339BB2B3F5C04F0B8001D303
:1004F80000232370B2F5FA6F07D94FF48053012215
:100508000B80094B1A700023036030BD803B9BB2FF
:100518007F2B0B809EBF0124034B1C70EAE700BFB2
:1005280060000024080000240A0000244D4B2DE937
:10053800F0471C88C034A4B21C804B4B1A8802F5C3
:10054800807292B21A804FEA122E484B70460EEB18
:10055800142A19880EF1800E5FFA8AF6803189B262
:100568001980090A424B471A01EB122201EB142C9D
:1005780051FA8AFAD2B2FFB202F140085FFA8CFC53
:1005880007F140055FFA8AFA53F82880ACEB0009B6
:1005980053F82550A0EB14205FFA89F94544DFF899
:1005A800E880C0B22D12803088F8005053F82750E8
:1005B80053F82270A2EB1422ED1B2E4FD2B22D124B
:1005C8003D7053F82E50C1EB142E2B4F711A45F382
:1005D800D7155FFA8EFEC9B280363D7009F1400525
:1005E8000AF1400753F8255053F82770ED1B02F124
:1005F800400753F8222053F827703D4401F1400783
:1006080053F8211053F82770ED1B53F82E700EF194
:10061800400E05EBD57853F82C500CF1400CED1B2F
:10062800164F05EB68052D123D7053F82A5053F804
:100638002970ED1B691A53F82E508A1A53F82C109A
:1006480002EBD272294401EB62020D4912120A70C0
:1006580053F8202053F82630D31A0A4A1B12137075
:10066800BDE8F087580000245A0000245C000024EC
:10067800B0630008650000246600002467000024B9
:100688006800002469000024640000241F4BDFF880
:1006980098C01F4A2DE9F04F93F900B000241D4B74
:1006A800DFF888E093F900A01B4B93F900901B4BEF
:1006B80093F900301F461A4B1A4801341EF8011BE3
:1006C8000232082C03F1020300EB01211CF8010B94
:1006D80011F80B5011F80A60124901EB002010F8CC
:1006E8000910C05D06EB0008A0EB060002F8028CBA
:1006F80005EB0108A1EB050102F8010C03F8028CD7
:1007080003F8011CD8D1BDE8F08F00BF68000024B1
:100718009CA80024650000246700002464000024CD
:10072800ACA800246A00002474A800246CA8002443
:10073800BE4B0020BE4ABF492DE9F04F13608DB073
:100748004FF05043BC4A136045000F46002301F5A3
:100758008071EDB20E461A460133140A2A44DBB200
:1007680007F8014B644292B2802B06F8014DF3D191
:1007780001308028E8D14FF480520021AF4840F67C
:10078800EF0405F0D9FD4FF480520021AC4805F084
:10079800D3FDAB49A9484FF6EF03002200F8012B1F
:1007A800A3F168020133B2F5877F9BB28CBF0022A8
:1007B8000122A3424FEA420201F8012B40F0F880DF
:1007C800A04D4420A04CA149A0F10803D8B203F0E1
:1007D8003F035A4243F080030428D2B251F8233031
:1007E80002F1800251F82220A2EB030343F307230E
:1007F80005F8013D04F8013BE6D1954D4220954CA2
:10080800031FD8B203F03F035A4243F08003022883
:10081800D2B251F8233002F1800251F82220A2EB23
:10082800030343F3072305F8013D04F8013BE7D12F
:1008380072B6DFF84CB2884C7D4EFFF743FE00F0ED
:1008480001FC01F09BF801F017FDDBF800103246BF
:1008580000234FF07F40994240F0B080FFF766FEDA
:10086800DFF8F081FFF712FF00237C4DADF80A3066
:10087800ADF80C307A4B7B4A93F900C07A4B93F968
:1008880000E06C4BBDF80C1089B20F2940F29B8038
:100898000021764BDFF8CCC14FF4F0791F88084669
:1008A800DFF898E1DFF89881CBF80010ADF8081070
:1008B800BDF808309BB2B3F5806FC0F0708109B104
:1008C800CBF80000DBF8002000234FF0FF319A42FC
:1008D80040F0A18100F0DEFB01F078F801F0F4FCB3
:1008E800634B524A0221C3F8AC205962D3F8AC10CA
:1008F8009142FBD1FFF7E6FD4F4D00F0B7FB01F049
:1009080051F801F0CDFC5B4B2A464FF07F40196847
:100918000023994240F08481FFF708FEDFF8348114
:10092800FFF7B4FE00234D4EADF81430ADF8163085
:100938004B4B4C4A93F900C04B4B93F900E03D4BAD
:10094800BDF8161089B20F2940F26F810021474B7C
:10095800484E4FF4F07AB3F800C00846DFF8DC8060
:10096800DFF8DC903160ADF81210BDF812309BB2A0
:10097800B3F5806FC0F0188201B13060326800238F
:100988004FF0FF319A4240F04B8200F0F9FC01F041
:100998008DF901F019FE364B4FF05042C3F8AC20E8
:1009A80002225A62D3F8AC20B2F1504FFAD143E791
:1009B800B3F5EF7F8CBF00220122EFE652F8045B0B
:1009C8000133286047E7BDF80C102B4889B22B4F3C
:1009D80018F9011089B2ADF80410BDF8041089B2F5
:1009E80003EB012111F80C108DF80010BDF804106C
:1009F80089B203EB012111F80E108DF80110BDF832
:100A08000C1089B2415689B2ADF806100021ADF834
:100A18000810BDF8081089B20F2933D9BDF80C1099
:100A2800013189B2ADF80C102CE700BF000008D0E6
:100A38006C9800246A0000246C880024BCA8002458
:100A4800BCB8002474A8002474A80024B06300086B
:100A58008CA800248CA800246A8000249CA8002468
:100A6800660000246A840024690000240800002429
:100A780000100050000000247CA80024ACA800242A
:100A880004000024BDF80610BDF808A089B29DF83E
:100A980000901FFA8AFABDF80A0003EB012115F944
:100AA8000AA080B211F80A10894404F80090BDF831
:100AB8000A00BDF80A1080B214FA81F1205CC04324
:100AC8004870BDF80610BDF808A089B29DF80190DD
:100AD8001FFA8AFABDF80A0003EB012117F90AA0E8
:100AE80080B211F80A10894402F80090BDF80A0093
:100AF800BDF80A1080B212FA81F1105CC043487048
:100B0800BDF80610BDF808A089B29DF800901FFA3C
:100B18008AFABDF80A0003EB012115F90AA014FAB4
:100B280080F011F80A10A1EB09018170BDF80A00E4
:100B3800BDF80A1014FA80F014FA81F18078C043E5
:100B4800C870BDF80610BDF808A089B29DF80190DC
:100B58001FFA8AFABDF80A0003EB012117F90AA067
:100B680012FA80F011F80A10A1EB09018170BDF8A2
:100B78000A00BDF80A1012FA80F012FA81F18078A2
:100B8800C043C870BDF80A10043189B2ADF80A1024
:100B9800BDF80810013189B2ADF8081039E7BDF881
:100BA8000830BDF808209BB292B2E3561CF9022027
:100BB8001B0112017B437A430693069B0692069A11
:100BC8001B14121403F5006302F500621BB212B283
:100BD8001EF8035018F802A045EA0A05032D13D1A0
:100BE800A2F5EF62A3F5E263012107920893079A41
:100BF800089B09FB02338D4A9B0003F1504303F520
:100C0800002342F820300130BDF8083001339BB290
:100C1800ADF808304CE656F8040B0133016056E68F
:100C280052F8046B0133306073E6BDF81610804843
:100C380089B2804F18F9011089B2ADF80E10BDF8CD
:100C48000E1089B203EB012111F80C108DF8021077
:100C5800BDF80E1089B203EB012111F80E108DF8C2
:100C68000310BDF8161089B2415689B2ADF81010BC
:100C78000021ADF81210BDF8121089B20F2906D95B
:100C8800BDF81610013189B2ADF8161058E6BDF856
:100C98001010BDF812A089B29DF802901FFA8AFAC6
:100CA800BDF8140003EB012116F90AA080B211F86F
:100CB8000A10894404F80090BDF81400BDF8141017
:100CC80080B214FA81F1205CC0434870BDF810105E
:100CD800BDF812A089B29DF803901FFA8AFABDF8F0
:100CE800140003EB012117F90AA080B211F80A10C9
:100CF800894402F80090BDF81400BDF8141080B2C1
:100D080012FA81F1105CC0434870BDF81010BDF8AC
:100D180012A089B29DF802901FFA8AFABDF8140051
:100D280003EB012116F90AA014FA80F011F80A1051
:100D3800A1EB09018170BDF81400BDF8141014FA74
:100D480080F014FA81F18078C043C870BDF81010A3
:100D5800BDF812A089B29DF803901FFA8AFABDF86F
:100D6800140003EB012117F90AA012FA80F011F818
:100D78000A10A1EB09018170BDF81400BDF8141028
:100D880012FA80F012FA81F18078C043C870BDF879
:100D98001410043189B2ADF81410BDF812100131E5
:100DA80089B2ADF8121066E7BDF81230BDF812200E
:100DB8009BB2214F92B2E356BA561B0112010CFBAB
:100DC80003F30CFB02F20993099B0992099A1B147D
:100DD800121403F5006302F500621BB212B218F890
:100DE800037019F802E047EA0E07032F11D1A2F5A4
:100DF800EF62A3F5E26301210A920B930A9A0B9B17
:100E08000AFB02330D4A9B0003F1504342F820309D
:100E18000130BDF8123001339BB2ADF81230A4E5B1
:100E280055F8040B01330160ACE500BF6C98002451
:100E38007CA80024ACA800246A8400246C880024C0
:100E48004D4B2DE9F0471C88E034A4B21C804B4B75
:100E58001A88803292B21A804FEA122E484B704696
:100E68000EEB142A19880EF1800E5FFA8AF66031AB
:100E780089B21980090A434B471A01EB122201EB88
:100E8800142C51FA8AFAD2B2FFB202F140085FFA82
:100E98008CFC07F140055FFA8AFA53F82880ACEB1E
:100EA800000953F82550A0EB14205FFA89F945444E
:100EB800DFF8E880C0B22D12803088F8005053F86F
:100EC800275053F82270A2EB1422ED1B2E4FD2B2FA
:100ED8002D123D7053F82E50C1EB142E2B4F711A62
:100EE80045F3D7155FFA8EFEC9B280363D7009F119
:100EF80040050AF1400753F8255053F82770ED1BB9
:100F080002F1400753F8222053F827703D4401F1BD
:100F1800400753F8211053F82770ED1B53F82E7033
:100F28000EF1400E05EBD57853F82C500CF1400C1F
:100F3800ED1B174F05EB68052D123D7053F82A502D
:100F480053F82970ED1B691A53F82E508A1A53F872
:100F58002C1002EBD272294401EB62020D491212E5
:100F68000A7053F8202053F82630D31A0A4A1B1265
:100F78001370BDE8F08700BFBCC80024BEC80024B9
:100F8800C0C80024B06B0008C3C80024C4C800242B
:100F9800C5C80024C6C80024C7C80024C2C8002485
:100FA8001F4BDFF898C01F4A2DE9F04F93F900B0A6
:100FB80000241D4BDFF888E093F900A01B4B93F940
:100FC80000901B4B93F900301F461A4B1A48013406
:100FD8001EF8011B0232082C03F1020300EB012169
:100FE8001CF8010B11F80B5011F80A60124901EBBB
:100FF800002010F80910C05D06EB0008A0EB060001
:1010080002F8028C05EB0108A1EB050102F8010CBE
:1010180003F8028C03F8011CD8D1BDE8F08F00BF9B
:10102800C6C80024E8D80024C3C80024C5C80024C2
:10103800C2C80024F8D800246A000024D0D80024AC
:10104800C8D80024074B4FF07F40074A196800238F
:1010580010B5994200D110BD52F8044B01332060FD
:10106800F7E700BF10000024C8D00024074B4FF05A
:101078007F40074A1968002310B5994200D110BD76
:1010880052F8044B01332060F7E700BF0C0000243E
:10109800C8C800242DE9F04786B0AC4FFFF7D0FE52
:1010A800AB4CFFF77DFF0023AA4AADF80830ADF836
:1010B8000A30A94BA94993F90050A94B93F900604C
:1010C800A84BBDF80A0080B2072824D90023A648F7
:1010D800A24C4FF4F07E984619469E4DA34EA44F5D
:1010E800DFF890C20360ADF80630BDF806309BB259
:1010F800B3F5007FC0F0E280B8F1000F00D00160C6
:10110800016800239B4A4FF0FF30994240F0188154
:1011180006B0BDE8F087BDF80A00DFF85CC280B20F
:10112800385680B2ADF80200BDF8020080B203EB79
:101138000020405D8DF80000BDF8020080B203EB8E
:101148000020805D8DF80100BDF80A0080B21CF90E
:101158000000DFF828C280B2ADF804000020ADF826
:101168000600BDF8060080B20F2806D9BDF80A00AF
:10117800013080B2ADF80A00A3E7BDF804E0BDF87D
:1011880006901FFA8EFE9DF800001FFA89F9BDF837
:10119800088003EB0E2E14F909901FFA88F81EF840
:1011A80009E07044BDF808E01FFA8EFE02F8080056
:1011B800BDF8080012F80EE012FA80F06FEA0E0E81
:1011C80080F801E0BDF804E0BDF806801FFA8EFE45
:1011D8009DF801001FFA88F8BDF8089003EB0E2E61
:1011E8001CF908801FFA89F91EF808E07044BDF858
:1011F80008E01FFA8EFE01F80900BDF8080011F892
:101208000EE011FA80F06FEA0E0E80F801E0BDF8EA
:101218000400BDF806E080B29DF800901FFA8EFE2B
:10122800BDF8088003EB002014F90EE012FA88F8E4
:1012380010F80E00BDF808E0A0EB090012FA8EFEC7
:1012480088F80200BDF808009EF802E012FA80F063
:101258006FEA0E0E80F803E0BDF80400BDF806E062
:1012680080B29DF801901FFA8EFEBDF8088003EB4E
:1012780000201CF90EE011FA88F810F80E00BDF8ED
:1012880008E0A0EB090011FA8EFE88F80200BDF80C
:1012980008009EF802E011FA80F06FEA0E0E80F85E
:1012A80003E0BDF80800043080B2ADF80800BDF8CE
:1012B8000600013080B2ADF8060052E7BDF80630EE
:1012C800BDF806209BB292B214F90290EA56530177
:1012D80003EB02134FEA49129B0202EB0912039334
:1012E8009202039B03921B14039A03F500631214E2
:1012F8001BB202F5006216F8039012B217F802A0AA
:1013080049EA0A09B9F1030F13D1A2F5EF62A3F56F
:10131800E2634FF0010804920593049A059B0EFBC3
:1013280002339B0003F1504303F500234CF82130AE
:101338000131BDF8063001339BB2ADF80630D4E672
:1013480052F8044B01332060DFE600BFE0D80024E8
:10135800E8D800246A800024C4C800246A840024D1
:10136800C7C800246A00002410000024BCA8002478
:10137800BCB80024C8D00024D8D80024F8D8002449
:101388002DE9F04786B0AB4FFFF75AFDAA4CFFF79F
:1013980007FE0023A94AADF80830ADF80A30A84B7B
:1013A800A84993F90050A84B93F90060A74BBDF8E2
:1013B8000A0080B2072824D90023A548A14C4FF47D
:1013C800F07E984619469D4DA24EA34FDFF88CC279
:1013D8000360ADF80630BDF806309BB2B3F5007F68
:1013E800C0F0E280B8F1000F00D00160016800236E
:1013F8009A4A4FF0FF30994240F0168106B0BDE896
:10140800F087BDF80A00DFF858C280B2385680B2BB
:10141800ADF80200BDF8020080B203EB0020405D89
:101428008DF80000BDF8020080B203EB0020805D5B
:101438008DF80100BDF80A0080B21CF90000DFF841
:1014480024C280B2ADF804000020ADF80600BDF853
:10145800060080B20F2806D9BDF80A00013080B214
:10146800ADF80A00A3E7BDF804E0BDF806901FFA3E
:101478008EFE9DF800001FFA89F9BDF8088003EB7D
:101488000E2E14F909901FFA88F81EF809E0704426
:10149800BDF808E01FFA8EFE02F80800BDF8080043
:1014A80012F80EE012FA80F06FEA0E0E80F801E0F2
:1014B800BDF804E0BDF806801FFA8EFE9DF8010015
:1014C8001FFA88F8BDF8089003EB0E2E1CF9088067
:1014D8001FFA89F91EF808E07044BDF808E01FFA01
:1014E8008EFE01F80900BDF8080011F80EE011FAA7
:1014F80080F06FEA0E0E80F801E0BDF80400BDF838
:1015080006E080B29DF800901FFA8EFEBDF80880B4
:1015180003EB002014F90EE012FA88F810F80E0018
:10152800BDF808E0A0EB090012FA8EFE88F8020068
:10153800BDF808009EF802E012FA80F06FEA0E0E7D
:1015480080F803E0BDF80400BDF806E080B29DF81D
:1015580001901FFA8EFEBDF8088003EB00201CF9ED
:101568000EE011FA88F810F80E00BDF808E0A0EBBC
:10157800090011FA8EFE88F80200BDF808009EF8EE
:1015880002E011FA80F06FEA0E0E80F803E0BDF871
:101598000800043080B2ADF80800BDF8060001303C
:1015A80080B2ADF8060052E7BDF80630BDF8062057
:1015B8009BB292B214F90290EA56530103EB02135C
:1015C8004FEA49129B0202EB091203939202039B12
:1015D80003921B14039A03F5006312141BB202F55D
:1015E800006216F8039012B217F802A049EA0A0935
:1015F800B9F1030F11D1A2F5EF62A3F5E2634FF041
:10160800010804920593049A059B0EFB02339B0084
:1016180003F150434CF821300131BDF80630013355
:101628009BB2ADF80630D6E652F8044B0133206081
:10163800E1E600BFE0D80024E8D800246A8000244E
:10164800C4C800246A840024C7C800246A0000248F
:101658000C000024BCA80024BCB80024C8C800247E
:10166800D8D80024F8D80024204B4420204A214907
:1016780030B51A604FF050421F4B204D204C1A6075
:10168800A0F10803D8B203F03F035A4243F08003A5
:101698000428D2B251F8233002F1800251F82220F6
:1016A800A2EB030343F3072305F8013D04F8013BCC
:1016B800E6D1144D4420144CA0F10803D8B203F02D
:1016C8003F035A4243F080030428D2B251F8233032
:1016D80002F1800251F82220A2EB030343F307230F
:1016E80005F8013D04F8013BE6D130BDC8D000241F
:1016F800000008D0B06B0008C8C80024D0D8002467
:10170800D0D80024E0D80024E0D800240C4A92F96C
:101718000010137800290ADB0A49087838B1013328
:10172800DBB213701B060AD500230B707047013B10
:10173800DBB2012B13709EBF024B01221A70704757
:101748001C0000241D000024574B2DE9F74F1C886E
:10175800DFF87CB18034A4B21C80544B1A88603204
:1017680092B21A804FEA122E514B70460EEB142C8F
:1017780019880EF1800E5FFA8CF9E03189B2198070
:10178800090A4C4B471A01EB122201EB142551FAB6
:101798008CFCD2B2FFB202F14008EDB207F140066C
:1017A8005FFA8CFC53F82880A5EB000A53F82660F2
:1017B800A0EB14205FFA8AFA4644DFF81881C0B219
:1017C8003612803088F8006053F8276053F822708A
:1017D800A2EB1422F61B384FD2B236123E700CF12F
:1017E800400753F82E60C1EB142E53F82770A9EB6D
:1017F800010146F3C7180AF14006C9B209F1800988
:1018080053F826605FFA8EFE8BF80080F61B02F113
:10181800400753F8222053F827703E4401F140074F
:1018280053F8211053F82770F61B53F82E700EF159
:10183800400E06EBD676019653F825604035F61B28
:10184800019F06EB67061D4F36123E7053F82C6059
:1018580053F82A70F61B711A8A1A53F8251053F890
:101868002E5002EBD272294401EB62021449121283
:101878000A7053F8202053F829301249D31A124A13
:10188800107843F3072392F900200B70002A08DB35
:101898000E4A02EB002212F80800D35C8BF8000015
:1018A8000B7003B0BDE8F08F08D900240AD90024D2
:1018B8000CD90024B07300080FD9002411D90024D2
:1018C80012D9002413D900241C0000246A00002423
:1018D80010D900240ED900241F4BDFF898C01F4AE6
:1018E8002DE9F04F93F900B000241D4BDFF888E094
:1018F80093F900A01B4B93F900901B4B93F9003010
:101908001F461A4B1A4801341EF8011B0232082CD4
:1019180003F1020300EB01211CF8010B11F80B5035
:1019280011F80A60124901EB002010F80910C05D97
:1019380006EB0008A0EB060002F8028C05EB010894
:10194800A1EB050102F8010C03F8028C03F8011C55
:10195800D8D1BDE8F08F00BF12D9002434E90024A3
:101968000FD9002411D900240ED9002444E90024F9
:101978006A0000241CE9002414E90024074B4FF0F6
:101988007F40074A1968002310B5994200D110BD5D
:1019980052F8044B01332060F7E700BF1800002419
:1019A80014E10024074B4FF07F40074A19680023D1
:1019B80010B5994200D110BD52F8044B0133206094
:1019C800F7E700BF1400002414D900242DE9F047DC
:1019D80086B0A94FFFF79AFEA84CFFF7B5FEFFF7B0
:1019E8007BFF0023A64AADF80830ADF80A30A54BB6
:1019F800A54993F90050A54B93F90060A44BBDF895
:101A08000A0080B2072824D90023A2489E4C4FF42C
:101A1800F07E984619469A4D9F4EA04FDFF880C237
:101A28000360ADF80630BDF806309BB2B3F5007F11
:101A3800C0F0E280B8F1000F00D001600168002317
:101A4800974A4FF0FF30994240F0108106B0BDE848
:101A5800F087BDF80A00DFF84CC280B2385680B271
:101A6800ADF80200BDF8020080B203EB0020405D33
:101A78008DF80000BDF8020080B203EB0020805D05
:101A88008DF80100BDF80A0080B21CF90000DFF8EB
:101A980018C280B2ADF804000020ADF80600BDF809
:101AA800060080B20F2806D9BDF80A00013080B2BE
:101AB800ADF80A00A3E7BDF804E0BDF806901FFAE8
:101AC8008EFE9DF800001FFA89F9BDF8088003EB27
:101AD8000E2E14F909901FFA88F81EF809E07044D0
:101AE800BDF808E01FFA8EFE02F80800BDF80800ED
:101AF80012F80EE012FA80F06FEA0E0E80F801E09C
:101B0800BDF804E0BDF806801FFA8EFE9DF80100BE
:101B18001FFA88F8BDF8089003EB0E2E1CF9088010
:101B28001FFA89F91EF808E07044BDF808E01FFAAA
:101B38008EFE01F80900BDF8080011F80EE011FA50
:101B480080F06FEA0E0E80F801E0BDF80400BDF8E1
:101B580006E080B29DF800901FFA8EFEBDF808805E
:101B680003EB002014F90EE012FA88F810F80E00C2
:101B7800BDF808E0A0EB090012FA8EFE88F8020012
:101B8800BDF808009EF802E012FA80F06FEA0E0E27
:101B980080F803E0BDF80400BDF806E080B29DF8C7
:101BA80001901FFA8EFEBDF8088003EB00201CF997
:101BB8000EE011FA88F810F80E00BDF808E0A0EB66
:101BC800090011FA8EFE88F80200BDF808009EF898
:101BD80002E011FA80F06FEA0E0E80F803E0BDF81B
:101BE8000800043080B2ADF80800BDF806000130E6
:101BF80080B2ADF8060052E7BDF80630BDF8062001
:101C08009BB292B2EB56A2561B0412040393039B99
:101C18000392039A1B14121403F5EC6302F5006295
:101C28001BB212B216F8039017F802A049EA0A0983
:101C3800B9F1030F13D1A2F5EF62A3F5E2634FF0F8
:101C4800010804920593049A059B0EFB02339B003E
:101C580003F1504303F500234CF821300131BDF85E
:101C6800063001339BB2ADF80630DCE652F8044B7F
:101C780001332060E7E600BF2CE9002434E90024A2
:101C88006A80002410D900246A84002413D900240F
:101C98006A00002418000024BCA80024BCB8002452
:101CA80014E1002424E9002444E900242DE9F04744
:101CB80086B0A84FFFF72AFDA74CFFF745FDFFF7B1
:101CC8000BFE0023A54AADF80830ADF80A30A44B46
:101CD800A44993F90050A44B93F90060A34BBDF8B5
:101CE8000A0080B2072824D90023A1489D4C4FF44C
:101CF800F07E98461946994D9E4E9F4FDFF87CC25C
:101D08000360ADF80630BDF806309BB2B3F5007F2E
:101D1800C0F0E280B8F1000F00D001600168002334
:101D2800964A4FF0FF30994240F00E8106B0BDE868
:101D3800F087BDF80A00DFF848C280B2385680B292
:101D4800ADF80200BDF8020080B203EB0020405D50
:101D58008DF80000BDF8020080B203EB0020805D22
:101D68008DF80100BDF80A0080B21CF90000DFF808
:101D780014C280B2ADF804000020ADF80600BDF82A
:101D8800060080B20F2806D9BDF80A00013080B2DB
:101D9800ADF80A00A3E7BDF804E0BDF806901FFA05
:101DA8008EFE9DF800001FFA89F9BDF8088003EB44
:101DB8000E2E14F909901FFA88F81EF809E07044ED
:101DC800BDF808E01FFA8EFE02F80800BDF808000A
:101DD80012F80EE012FA80F06FEA0E0E80F801E0B9
:101DE800BDF804E0BDF806801FFA8EFE9DF80100DC
:101DF8001FFA88F8BDF8089003EB0E2E1CF908802E
:101E08001FFA89F91EF808E07044BDF808E01FFAC7
:101E18008EFE01F80900BDF8080011F80EE011FA6D
:101E280080F06FEA0E0E80F801E0BDF80400BDF8FE
:101E380006E080B29DF800901FFA8EFEBDF808807B
:101E480003EB002014F90EE012FA88F810F80E00DF
:101E5800BDF808E0A0EB090012FA8EFE88F802002F
:101E6800BDF808009EF802E012FA80F06FEA0E0E44
:101E780080F803E0BDF80400BDF806E080B29DF8E4
:101E880001901FFA8EFEBDF8088003EB00201CF9B4
:101E98000EE011FA88F810F80E00BDF808E0A0EB83
:101EA800090011FA8EFE88F80200BDF808009EF8B5
:101EB80002E011FA80F06FEA0E0E80F803E0BDF838
:101EC8000800043080B2ADF80800BDF80600013003
:101ED80080B2ADF8060052E7BDF80630BDF806201E
:101EE8009BB292B2EB56A2561B0412040393039BB7
:101EF8000392039A1B14121403F5EC6302F50062B3
:101F08001BB212B216F8039017F802A049EA0A09A0
:101F1800B9F1030F11D1A2F5EF62A3F5E2634FF017
:101F2800010804920593049A059B0EFB02339B005B
:101F380003F150434CF821300131BDF8063001332C
:101F48009BB2ADF80630DEE652F8044B0133206050
:101F5800E9E600BF2CE9002434E900246A80002463
:101F680010D900246A84002413D900246A000024AC
:101F780014000024BCA80024BCB8002414D90024F0
:101F880024E9002444E90024204B4420204A214924
:101F980030B51A604FF050421F4B204D204C1A604C
:101FA800A0F10803D8B203F03F035A4243F080037C
:101FB8000428D2B251F8233002F1800251F82220CD
:101FC800A2EB030343F3072305F8013D04F8013BA3
:101FD800E6D1144D4420144CA0F10803D8B203F004
:101FE8003F035A4243F080030428D2B251F8233009
:101FF80002F1800251F82220A2EB030343F30723E6
:1020080005F8013D04F8013BE6D130BD14E1002498
:10201800000008D0B073000814D900241CE900247B
:102028001CE900242CE900242CE900240D490E4A5F
:102038000878138878B101331BB2B3F5EE7F1380AB
:1020480001DD00230B70094BB2F9002053F8222060
:10205800074B1A607047023B1BB2012B1380F2DC5E
:102068000123EFE72800002464F90024B07B00086E
:1020780060F900244D4B2DE9F0471C888034A4B248
:102088001C804B4B1A88603292B21A804FEA122E8B
:10209800484B70460EEB142A19880EF1800E5FFA31
:1020A8008AF6E03189B21980090A434B471A01EBD5
:1020B800122201EB142C51FA8AFAD2B2FFB202F1C1
:1020C80040085FFA8CFC07F140055FFA8AFA53F87A
:1020D8002880ACEB000953F82550A0EB14205FFAD8
:1020E80089F94544DFF8E880C0B22D12803088F8BD
:1020F800005053F8275053F82270A2EB1422ED1B1E
:102108002E4FD2B22D123D7053F82E50C1EB142E23
:102118002B4F711A45F3D7155FFA8EFEC9B2803678
:102128003D7009F140050AF1400753F8255053F86E
:102138002770ED1B02F1400753F8222053F827704F
:102148003D4401F1400753F8211053F82770ED1B67
:1021580053F82E700EF1400E05EBD57853F82C503D
:102168000CF1400CED1B174F05EB68052D123D7067
:1021780053F82A5053F82970ED1B691A53F82E505A
:102188008A1A53F82C1002EBD272294401EB62022E
:102198000D4912120A7053F8202053F82630D31A2A
:1021A8000A4A1B121370BDE8F08700BF54E90024E7
:1021B80056E9002458E90024308300085BE900242C
:1021C8005CE900245DE900245EE900245FE900245D
:1021D8005AE900241F4BDFF898C01F4A2DE9F04F39
:1021E80093F900B000241D4BDFF888E093F900A0B4
:1021F8001B4B93F900901B4B93F900301F461A4B69
:102208001A4801341EF8011B0232082C03F102039C
:1022180000EB01211CF8010B11F80B5011F80A60B2
:10222800124901EB002010F80910C05D06EB000808
:10223800A0EB060002F8028C05EB0108A1EB0501F2
:1022480002F8010C03F8028C03F8011CD8D1BDE890
:10225800F08F00BF5EE9002486F900245BE90024C2
:102268005DE900245AE9002496F900246A00002454
:102278006EF9002466F90024074B4FF07F40074AA7
:102288001968002310B5994200D110BD52F8044BCB
:1022980001332060F7E700BF2400002460F1002428
:1022A800074B4FF07F40074A1968002310B5994241
:1022B80000D110BD52F8044B01332060F7E700BF8E
:1022C8002000002460E900242DE9F04F87B0AF4FCB
:1022D800FFF7ACFEAE4CFFF7CDFEFFF77BFF002308
:1022E800AC4AADF80830ADF80A30AB4BAB4993F9BE
:1022F8000050AB4B93F90060AA4BBDF80A0080B2BE
:1023080007282DD9A84B0021A84D4FF4F07A18883A
:102318000C46A74B00F5E260A04F1B6880B2DFF8BF
:1023280098E203F50063DFF89482DFF888921FFAD9
:1023380083FC2960ADF80610BDF806309BB2B3F5F2
:10234800007FC0F0E08001B12C6029680023994A21
:102358004FF0FF30994240F0138107B0BDE8F08F8D
:10236800BDF80A00DFF858C280B2385680B2ADF81E
:102378000200BDF8020080B203EB0020405D8DF83A
:102388000000BDF8020080B203EB0020805D8DF8EC
:102398000100BDF80A0080B21CF90000DFF824C271
:1023A80080B2ADF804000020ADF80600BDF80600C4
:1023B80080B20F2806D9BDF80A00013080B2ADF806
:1023C8000A009AE7BDF804E0BDF806901FFA8EFEF1
:1023D8009DF800001FFA89F9BDF8088003EB0E2E5E
:1023E80014F909901FFA88F81EF809E07044BDF83E
:1023F80008E01FFA8EFE02F80800BDF8080012F87F
:102408000EE012FA80F06FEA0E0E80F801E0BDF8D7
:1024180004E0BDF806801FFA8EFE9DF801001FFA41
:1024280088F8BDF8089003EB0E2E1CF908801FFAF7
:1024380089F91EF808E07044BDF808E01FFA8EFE1E
:1024480001F80900BDF8080011F80EE011FA80F053
:102458006FEA0E0E80F801E0BDF80400BDF806E052
:1024680080B29DF800901FFA8EFEBDF8088003EB3D
:10247800002014F90EE012FA88F810F80E00BDF8E2
:1024880008E0A0EB090012FA8EFE88F80200BDF8F9
:1024980008009EF802E012FA80F06FEA0E0E80F84B
:1024A80003E0BDF80400BDF806E080B29DF8019095
:1024B8001FFA8EFEBDF8088003EB00201CF90EE021
:1024C80011FA88F810F80E00BDF808E0A0EB090032
:1024D80011FA8EFE88F80200BDF808009EF802E0A6
:1024E80011FA80F06FEA0E0E80F803E0BDF80800DC
:1024F800043080B2ADF80800BDF80600013080B2A3
:10250800ADF8060052E7BDF80630BDF806209BB2CC
:1025180092B2BE561F4AD256530103EB0213720100
:102528009B0202EB061203939202039B039200EBB9
:102538002343039A1BB20CEB22421EF8036012B22B
:1025480018F802B046EA0B06032E12D1A2F5EF6284
:10255800A3F5E263012104920593049A059B0AFB03
:1025680002339B0003F1504303F5002349F824305C
:102578000134BDF8063001339BB2ADF80630DBE616
:1025880052F8044B01332060E4E600BF7EF90024D2
:1025980086F900246A8000245CE900246A84002407
:1025A8005FE900246A00002464F900242400002460
:1025B80060F9002460F10024BCA80024BCB8002401
:1025C80076F9002496F900242DE9F04F87B0AE4F34
:1025D800FFF72CFDAD4CFFF74DFDFFF7FBFD00238A
:1025E800AB4AADF80830ADF80A30AA4BAA4993F9BE
:1025F8000050AA4B93F90060A94BBDF80A0080B2BD
:1026080007282DD9A74B0021A74D4FF4F07A188839
:102618000C46A64B00F5E2609F4F1B6880B2DFF8BE
:1026280094E203F50063DFF89082DFF884921FFAE2
:1026380083FC2960ADF80610BDF806309BB2B3F5EF
:10264800007FC0F0E08001B12C6029680023984A1F
:102658004FF0FF30994240F0118107B0BDE8F08F8C
:10266800BDF80A00DFF854C280B2385680B2ADF81F
:102678000200BDF8020080B203EB0020405D8DF837
:102688000000BDF8020080B203EB0020805D8DF8E9
:102698000100BDF80A0080B21CF90000DFF820C272
:1026A80080B2ADF804000020ADF80600BDF80600C1
:1026B80080B20F2806D9BDF80A00013080B2ADF803
:1026C8000A009AE7BDF804E0BDF806901FFA8EFEEE
:1026D8009DF800001FFA89F9BDF8088003EB0E2E5B
:1026E80014F909901FFA88F81EF809E07044BDF83B
:1026F80008E01FFA8EFE02F80800BDF8080012F87C
:102708000EE012FA80F06FEA0E0E80F801E0BDF8D4
:1027180004E0BDF806801FFA8EFE9DF801001FFA3E
:1027280088F8BDF8089003EB0E2E1CF908801FFAF4
:1027380089F91EF808E07044BDF808E01FFA8EFE1B
:1027480001F80900BDF8080011F80EE011FA80F050
:102758006FEA0E0E80F801E0BDF80400BDF806E04F
:1027680080B29DF800901FFA8EFEBDF8088003EB3A
:10277800002014F90EE012FA88F810F80E00BDF8DF
:1027880008E0A0EB090012FA8EFE88F80200BDF8F6
:1027980008009EF802E012FA80F06FEA0E0E80F848
:1027A80003E0BDF80400BDF806E080B29DF8019092
:1027B8001FFA8EFEBDF8088003EB00201CF90EE01E
:1027C80011FA88F810F80E00BDF808E0A0EB09002F
:1027D80011FA8EFE88F80200BDF808009EF802E0A3
:1027E80011FA80F06FEA0E0E80F803E0BDF80800D9
:1027F800043080B2ADF80800BDF80600013080B2A0
:10280800ADF8060052E7BDF80630BDF806209BB2C9
:1028180092B2BE561E4AD256530103EB02137201FE
:102828009B0202EB061203939202039B039200EBB6
:102838002343039A1BB20CEB22421EF8036012B228
:1028480018F802B046EA0B06032E10D1A2F5EF6283
:10285800A3F5E263012104920593049A059B0AFB00
:1028680002339B0003F1504349F824300134BDF88A
:10287800063001339BB2ADF80630DDE652F8044B62
:1028880001332060E6E600BF7EF9002486F90024C3
:102898006A8000245CE900246A8400245FE900243B
:1028A8006A00002464F900242000002460F9002450
:1028B80060E90024BCA80024BCB8002476F90024F0
:1028C80096F90024204B4420204A214930B51A604B
:1028D8004FF050421F4B204D204C1A60A0F10803C6
:1028E800D8B203F03F035A4243F080030428D2B21F
:1028F80051F8233002F1800251F82220A2EB0303A1
:1029080043F3072305F8013D04F8013BE6D1144DD4
:102918004420144CA0F10803D8B203F03F035A42F4
:1029280043F080030428D2B251F8233002F1800228
:1029380051F82220A2EB030343F3072305F8013DD6
:1029480004F8013BE6D130BD60F10024000008D056
:102958003083000860E900246EF900246EF9002431
:102968007EF900247EF9002470B503680025144C14
:10297800026A23604368226263608368426AA360D4
:10298800C368104EE360036906F1140162622361B3
:102998004369826A63618369A262A361C369284645
:1029A800C6E90355E3619847236A06F118012846EA
:1029B8009847A36A06F11C012846BDE870401847ED
:1029C800E8F90024A8F9002438B5054B04465B6AE9
:1029D8002BB1044D01462869984700B9EC6038BD11
:1029E800E8F90024A8F9002410B5164C88B0002294
:1029F8000F21D4F8F4306FF0010043F00203C4F85B
:102A0800F430D4F8F43003F002030193019B01F091
:102A18008BF8D4F8E030082203A90B4843F01003E0
:102A2800C4F8E030D4F8E03003F010030293029BBE
:102A38000123CDE903230023CDE9053301F08EFA04
:102A480008B010BD0044025800100258FEE7FEE727
:102A5800FEE7FEE7FEE7704701F034B870477047BD
:102A6800704770477047704770470000254AD2F892
:102A7800883043F47003C2F88830234A136803F09F
:102A88000F03062B05D8136823F00F0343F0070341
:102A980013601E4B1A6842F001021A6000221A6184
:102AA8001B4A19680A4018491A600A68120705D5AE
:102AB8000A6822F00F0242F007020A600022154954
:102AC8009A61DA611A6299621349D96213491963E2
:102AD8005A639963DA6319645A64196821F4802186
:102AE80019601A660E4B1B681B0C1B04B3F1005FC0
:102AF80003D20C4B0122C3F808210B4B43F2D2023C
:102B08001A60704700ED00E00020005200440258AF
:102B18007FEDF6EA000202020000FF0180020101D7
:102B28000010005C0080005100400052DFF834D0F3
:102B3800FFF79CFF0C480D490D4A002302E0D458CA
:102B4800C4500433C4188C42F9D30A4A0A4C0023EF
:102B580001E013600432A242FBD303F0F5FBFDF75A
:102B6800BDFB704700000824000000243C0000243E
:102B78008C8B00083C000024C0060124FEE710B43A
:102B880004690089A4465DF8044B604710B4C46822
:102B98000089A4465DF8044B6047183000F023B85C
:102BA80090B14A680B6842600A8903600281CA686A
:102BB800C2600A6902614A6900624261044AC261EC
:102BC800044A826103B118474FF0FF30704700BFD5
:102BD800872B0008952B000810B4D0E90140A446C3
:102BE8005DF8044B60470A460123A821FFF7F4BFAC
:102BF80008B50122074BC3E900219A600022194653
:102C0800DA604FF6FF7203F00BFA003818BF0120A4
:102C1800404208BD14FA002408B50222084BC3E953
:102C2800002101210022C3E902124FF6FF72194662
:102C380003F0F6F9003818BF0120404208BD00BF74
:102C480014FA0024D1E9033210B513434A690B4C36
:102C580013438A691343CA691343042222600A682A
:102C6800214662600122C4E902234FF6FF7203F095
:102C7800D7F9003818BF0120404210BD14FA0024CB
:102C880008B5084BC3E9002108210022C3E9021254
:102C98004FF6FF72194603F0C3F9003818BF012038
:102CA800404208BD14FA002408B503F0D8F90038EA
:102CB80018BF0120404208BD70B50C46096805469A
:102CC800FFF796FF10B14FF0FF3070BD00F006FF20
:102CD800064600F003FF8642FBD021682846FFF72E
:102CE8009BFF0028EFD12846D4E90012FFF7C8FF60
:102CF8000028E8D121462846FFF7A4FF0028E2D1A2
:102D0800A1682846FFF7D0FF003818BF01204042CD
:102D1800DBE7000008B5054B002233F82010044B10
:102D280053F8200001F004FA002008BD408B000889
:102D3800488B00080023012210B541600446036255
:102D4800C0E90232C0E90433C0E9063301F022FBCE
:102D5800014608B1012010BD204601F050FC014693
:102D68000028F7D1204601F070FC003818BF012078
:102D7800F1E70000A44BA5482DE9F04F036093B09C
:102D8800A34B1C68002C40F0CF8001221A6001F090
:102D980031FC002840F0C8809E4D4FF012080227F1
:102DA8000426D5F8E0300DA99B4843F00803C5F880
:102DB800E030D5F8E03003F008030A930A9BD5F811
:102DC800E03043F00803C5F8E030D5F8E0300F9460
:102DD80003F008030B930B9B4FF48053CDE9107657
:102DE800CDE90D3801F0BAF84FF400530DA98A481F
:102DF8001196CDE90D38CDE90F4701F0AFF8D5F8B8
:102E0800F43043F08003C5F8F430D5F8F43003F01B
:102E180080030C930C9BD5F89C3043F08003C5F8D5
:102E28009C30D5F89C3023F08003C5F89C3002F024
:102E3800B7FA002872D0794B40F6F6162246A1461A
:102E480003EB50034FF0100ADFF8D8B1B3FBF0F0F2
:102E58006FF01D0300EB4005A6EB800601465B1BE7
:102E680026EAE67623EAE37300936D4B1B688846EF
:102E78004FF0000C40F27935CDF804C00CF1010C8C
:102E8800A8455ED90027BE46009DBD4253D8BE4224
:102E980051D392454FD0142505FB03FA0133019D08
:102EA8000BEB0A097F2B4BF80A20C9E9015E3FD9D1
:102EB8005B4A13605A4B42F210725A4900271B684A
:102EC80003924FF0FF3205934300019203F132055C
:102ED800C3F5905BA3F511530BF10C0B09950A3B55
:102EE8000293059B9F4238D1019B7F2B16D8142152
:102EF800019A4C4B4A4399189B580C7C44EA03743A
:102F08004B681B0503F470031C438B681B0403F414
:102F180070231C43CB681B029BB21C4321463B48D1
:102F2800FFF708FF00286CD1002013B0BDE8F08F30
:102F380092464FF001090EF1010E0F44BEF1100F39
:102F4800A2D1BCF1100F884494D101320144102A57
:102F58008DD1B9F1000FABD1ACE70B684FF0000C85
:102F6800099D03FB0003029E1D441E440495ABEB20
:102F7800030508966D000095049D41F25C22CDF88A
:102F880018C0A5F132060CF1010C95422ED9B0EB10
:102F9800960F2BD2089E4FF0000EDDF810802E44BD
:102FA800DDF8009006F2836A41F24702CDF81CE092
:102FB8000EF1010E924512D8B8F57A6F0FD340453D
:102FC8000DD236EA260A28BFCA46039A924506D287
:102FD800069ACDF80CA00A61079A0197CA60BEF557
:102FE800807F1E44A9EB03099844DBD1009ABCF505
:102FF800807F1D44A2EB03020092BED10137143139
:103008006FE76FF0070090E7001C00582C040124BC
:1030180024FA002400440258000C025800CA9A3BC3
:103028002804012428FA00241FB54FF47A7400926A
:103038000A4601460848CDE90134012301F0FCF9AC
:1030480040B1054801F0D9FA04280CBF6FF06500BB
:103058006FF0030004B010BD2C04012418B9034B11
:10306800DB680B6070476FF0010070478004012433
:1030780010B9034B996070476FF00100704700BFAB
:103088008004012418B9034B1B680B6070476FF06C
:10309800010070478004012418B9034B5B680B607A
:1030A80070476FF00100704780040124F0B50C4DA3
:1030B8004601342705EB4010AD59846805FB021220
:1030C800084807FB0400816CC46D21B954F822201C
:1030D80000201A60F0BD34F8122092B2F8E700BF61
:1030E8008004012408050124F0B50B4D460134275E
:1030F80005EB4010AD59846805FB0212074807FB31
:103108000400816CC46D19B944F822300020F0BD68
:103118009BB224F81230F9E7800401240805012441
:103128002DE9F84F1D460B9B80460E4603EB02091E
:103138000D4B144603EB401A4C4512D00A9B3746F8
:1031480003EB060B09E02B68394622464046FFF799
:10315800CBFFDAF8103001371D445F45F3D1013455
:10316800EAE70020BDE8F88F800401242DE9F04F3C
:103178001C7B4FF03409DD7A85B024041F7D1E7E48
:1031880004EB05249D7A3F0493F81DC02C445D7B15
:103198003604DFF8048104EB056ADD7C07EB0527BC
:1031A8009D7C2F445D7D07EB0567DD7D06EB0526DD
:1031B8009D7D2E445D7E06EB05661D7F05EB0C2587
:1031C8004FEA401C08EB401058F80C40D0F810E0CB
:1031D80004FB021280682D4909FB0011C96D0EFB22
:1031E8000219A5F12002072A19D9A5F11002082A07
:1031F80034BF4FF0020B4FF0010BED08721EE04494
:103208007D4305FB02A44FF0000A1C446B42204D8D
:103218000393B24506D1002005B0BDE8F08F4FF00A
:10322800000BEAE7D8F80C3019489A1E534253416C
:103238004FF480325B00C5E901230023FF22EB60D5
:10324800EB642A65C5E9113B124B2B6000F052FD77
:1032580088B90121284600F021FE60B901234A46B9
:103268002146284600933B4600F081FD18B93221DB
:10327800284600F096FDD8F800300AF1010AD8F87F
:10328800102002FB0399039B1C44C2E70805012494
:10329800A004012400100052800401242DE9F34108
:1032A8001F46244B16460D4603EB4010C368022BFD
:1032B800DDE9082439D1C4F3451040F2031EC4F3F4
:1032C800C42140F20F2C0EFB00F004F01F040CFB8D
:1032D80001F121300CFB04F41731800917348909F6
:1032E800000240EA014040EA941040F07F44DFF8D1
:1032F8004C804FF44031C8E901130F4B4046C8F8E1
:103308000C20C8F8003000F0F5FC80B933462A4696
:1033180021464046009700F02AFD40B93221404638
:1033280002B0BDE8F04100F03CBD0023DFE702B089
:10333800BDE8F0818004012400100052A00401249B
:10334800F7B51C46104B0D46460103EB40114FF0F4
:10335800340C9B598F680E6902FB03520B490CFB16
:103368000711C96D06FB02112A19934238BF5C1B6D
:10337800089B00250193224601230095FFF78EFF45
:10338800284603B0F0BD00BF8004012408050124CD
:10339800F0B5114C450185B04FF0340C04EB4016E4
:1033A8006459356902FB0411B768013C03950B4D5C
:1033B8000CFB0755039FED6D07FB01517568D61887
:1033C8000094AE4288BFAB1A0A9A01920122FFF715
:1033D80065FF002005B0F0BD800401240805012424
:1033E800F7B51D4646010D4B342703EB40149B5996
:1033F800266902FB0311A4685B1B094A07FB042228
:10340800D46D099A009301922A46089B06FB014154
:10341800FFF744FF002003B0F0BD00BF8004012483
:103428000805012410B4DFF844C00024C0E900C432
:10343800C0E902440461282444612A24C46101F1DA
:1034480035044A314462C162092181610B2101625C
:1034580051180D32816202634FF6FF72828680F83E
:1034680036205DF8044B01F099B900BF00100050F8
:10347800F0B515698FB017684FF0FF0C96684FF4D8
:10348800C06E5468D3680595002552690294E41B00
:1034980004939B1B0A920A4601A9019703960B9471
:1034A8000C93ADF834508DF83650CDE906C54FF081
:1034B800070CCDE908EC01F0DDF90FB0F0BD00B55F
:1034C8004FF00052B1B000236846CDE90023052231
:1034D800A023CDE90A230223CDE90C3353230E930D
:1034E8000023CDE9103302F05DF831B05DF804FB3C
:1034F8002DE9F04F0129A7B098464FF00003154673
:10350800DDF8C090019300F23C81002840F0398139
:10351800022A00F0CA80002A40F0338104239C4F1D
:103528004FF0020A9B4C0E269B4A1CA9DFF898B262
:103538009A48C7E903539A4BC7E900891A60D4F837
:10354800E420984B42F00802C3F800B0C4F8E42025
:10355800D4F8E42002F008020392039AD4F8E02099
:1035680042F48072C4F8E020D4F8E02002F48072BB
:103578000492049AD4F8E02042F40072C4F8E020DF
:10358800D4F8E02002F400720592059AD4F8E020FD
:1035980042F48062C4F8E020D4F8E02002F48062AB
:1035A8000692069AD4F8E02042F08002C4F8E0209F
:1035B800D4F8E02002F080020792079AD4F8E020BD
:1035C80042F00802C4F8E020D4F8E020209602F087
:1035D80008020892089A4DF20322CDE91C2A00221B
:1035E800CDE91E2A00F0BAFC4FF6FB716E481C911B
:1035F8001CA9209600F0B2FCFF216C4820961C9173
:103608001CA900F0ABFC002240F202216848209679
:103618008026CDE91E2ACDE91C1A1CA94FF0010A03
:1036280000F09CFC1CA96348CDE91C6A00F096FCDC
:10363800524631465F4800F07BFDD4F88C20594B48
:1036480042F008021B68C4F88C20D4F88C205B4533
:1036580022F00802C4F88C2013D1D4F8D43043F0F7
:103668001003C4F8D430D4F8D43003F01003029314
:10367800029BE36F43F01003E367E36F23F010034B
:10368800E3674D4B10A910934C4B149370230DEB2B
:103698000300ADF84830FFF783FA002807DA6FF027
:1036A8000404204627B0BDE8F08F134637E701A988
:1036B8001CA8FFF772FA0028F1DB019B512B63D19C
:1036C8003748FFF7FCFE10B16FF00304E9E74A46FC
:1036D80041463348FFF7A6FE06460028F4D100F01D
:1036E800B1F804460028EFD14FF05043014616AA1E
:1036F8001A95334D1B93CDE91608CDE918092848CA
:103708004FF00108FFF7B4FE2E4B002828462B6027
:1037180018BF6FF0030402F0BCFC1E4B0BA9234832
:10372800D3F8E02042F48062C3F8E020D3F8E02028
:1037380002F480620992099AD3F8F02042F002025A
:10374800C3F8F020D3F8F030CDF82C8003F0020352
:103758000A930A9B0223CDE90C360323CDE90E8395
:1037680000F0FCFB04232846AE606B604CF250333B
:10377800C5E90566C5E9033602F024FDC7F81880D7
:103788008FE76FF001048CE76FF0060489E700BF4C
:103798008004012400440258001000500020025800
:1037A80008050124A0040124002402580028025816
:1037B800001C0258000C02587D2D0008313000080A
:1037C800B005012400040140001000524FF4887332
:1037D80007B5002200934FF4F073FFF789FE03B09A
:1037E8005DF804FB30B5154D4FF0010C144C4FF447
:1037F800006E89B002232C60002407938462C0E91C
:10380800031240220421C0E901C46A614FF4C07266
:10381800C0E906244FF48052C0E908E20722CDE946
:1038280003126944CDE90132CDE9053302F0D0FB3A
:10383800001B18BF012009B030BD00BFFC050124E2
:1038480040410052F0B505468DB0002840F0CB80CD
:10385800684B032707A96848D3F8D420674C42F47B
:103868008052674EC3F8D420D3F8D42002F4805293
:103878000092009AD3F8D42042F00102C3F8D42071
:10388800D3F8D42002F001020192019AD3F8E02083
:1038980042F00802C3F8E020D3F8E02002F0080262
:1038A8000292029AD3F8E02042F01002C3F8E02016
:1038B800D3F8E02002F010020392039AD3F8E02034
:1038C80042F02002C3F8E020D3F8E02002F0200202
:1038D8000492049AD3F8E02042F04002C3F8E020B2
:1038E800D3F8E02002F040020592059AD3F8E020D0
:1038F80042F08002C3F8E0200222D3F8E03003F05F
:1039080080030693069B0123CDE908230C23CDE908
:103918000A734CF20373079300F020FB4FF683738E
:1039280007A93848079300F019FB4FF63F0307A98A
:103938003548079300F012FB48F2331307A93348C0
:10394800079300F00BFBE02307A93148079300F029
:1039580005FB4FF080414FF0805340F2022040F6C3
:10396800080234632664C4E90113C4E9050280230C
:1039780020222046A362C4E90723C4E903354FF097
:103988000072244B62622360C4E90B55C4E90D55EB
:1039980001F02CF8204600F0BAFF2A460F217A20C1
:1039A80000F0C2F87A2000F0F1F810220421304625
:1039B800FFF718FFD0B918490823C1E9003740F2CA
:1039C80003630861C1E902303023C1E905304FF4CF
:1039D80000733046CB61FFF76FF9002818BF6FF00E
:1039E80004000DB0F0BD6FF00100FAE74FF0FF30B2
:1039F800F7E700BF00440258000C025830060124C3
:103A0800FC0501240010025800140258001802583E
:103A1800001C0258400000529C06012438B50F4B88
:103A280005461A780AB9012038BD4FF47A73B3FBFA
:103A3800F2F30B4A1068B0FBF3F000F0B5F8044657
:103A48000028F0D10F2DEED8024629464FF0FF305E
:103A580000F06AF8034B20461D60E5E734000024B7
:103A68002C0000243800002410B5032000F04AF888
:103A780001F0ACFA0F49104A8B69C3F30323D35CF6
:103A880003F01F03D8408B6903F00F03D35C0B4A84
:103A980003F01F0320FA03F31360094B18600F208B
:103AA800FFF7BCFF044618B9FEF79EFF204610BD7D
:103AB8000124FBE700440258308B00083000002442
:103AC8002C000024034A044B11681B780B44136034
:103AD800704700BFBC06012434000024014B18685D
:103AE800704700BFBC060124014B1868000C7047E2
:103AF8000010005C024A136A43F001031362704726
:103B08000004005807490302CA6803F4E06322F47A
:103B1800E0621204120C134343F0BF6343F4003312
:103B2800CB60704700ED00E0164B30B5DC68C4F39D
:103B38000224C4F10703251D042B28BF0423062DE6
:103B48004FF0FF358CBF033C002405FA03F300282F
:103B580005FA04F521EA030322EA050203FA04F34D
:103B680043EA02034FEA0313DBB206DB00F16040CD
:103B780000F5614080F8003330BD00F00F00024AC4
:103B88001354F9E700ED00E014ED00E0002807DB2E
:103B98000123410900F01F00024A834042F8213006
:103BA800704700BF00E100E00138B0F1807F0BD220
:103BB8004FF0E023054AF0215861002082F82310D5
:103BC800072298611A6170470120704700ED00E0F4
:103BD800BFF35F8F044B5A6A22F480325A62002284
:103BE800C3F89420704700BF00ED00E0064B40F09A
:103BF8000100C3F894005A6A42F480325A62BFF353
:103C08004F8FBFF36F8F704700ED00E04378144A81
:103C180010B5C2F898300178E9B14368C2F89C3011
:103C2800C37A047B1B0643EA04730B43817A43EA95
:103C3800C143417B43EA8143817B43EA4143C17BE2
:103C480043EA0143417A43EA0123017A43EA410303
:103C5800C2F8A03010BDC2F89C10C2F8A010F9E755
:103C680000ED00E070B50468049D666C45EA034306
:103C780006F04046334363644368E263B3F5403F6C
:103C880030D185681DB1012D03D121F07F41A16399
:103C980070BD022D01F47F0301F47F40CAB207D141
:103CA800D90C800AC90241EA401141EAD201EEE783
:103CB800032D01F07F410AD1DB0CC00A9B02C90F1A
:103CC80043EA401343EAD20343EAC131DFE71B0D5D
:103CD800000B1B02090F43EA001343EA121343EADD
:103CE8000131D4E7B3F5802F01D16161D0E7E160FC
:103CF800CEE7704710B50446002836D090F86130FA
:103D080003F0FF021BB980F86020FFF7F2FF0223DF
:103D1800E069626884F8613023680243A069196821
:103D280021F4E02121F040010A431A60596BA2688E
:103D380021F48371024321F001010A43E1685A63C7
:103D48001A6C120C12040A431A64596BD4E904025F
:103D580021F44011520542EA005200200A435A63F6
:103D68000123606684F8613010BD0120FCE773B55B
:103D780090F860500446012D4FF002050FD080F8EE
:103D880061500126069D80F860600095FFF76AFF84
:103D98002268002013683343136002B070BD2846C0
:103DA800FBE7002373B50193044603680D461B68BF
:103DB800DB0718D42268D369526A13439E0606D5D6
:103DC800FFF78CFE064623685A68D2063ED523685C
:103DD800122200209A60012384F86130002384F8BD
:103DE800603002B070BDFFF779FE064623685A6856
:103DF8009207DFD45A680192019A12F0210F14D069
:103E0800019A950603D5626E42F002026266019A33
:103E1800D00703D5626E42F00102626621229A60E1
:103E28000423012084F86130D8E7691CDFD0FFF74C
:103E380055FE801BA84201D8002DD7D1636E032000
:103E480043F02003636684F86100C7E75A6801926B
:103E5800019A12F0290F16D0019A160703D5626E3F
:103E680042F004026266019A950603D5626E42F03A
:103E780002026266019AD00703D5626E42F001021F
:103E880062662922CBE7691C9ED0FFF727FE801BBC
:103E9800A842D3D8002D96D1D0E7000070B590F88D
:103EA8006030012B4FF0020332D0012280F86130DC
:103EB80080F860201C2202FB0102936BD2E90B45BB
:103EC8001B0543EA0543D56B526B234343EA45532D
:103ED800A4F10905012D96BF02F07F4243EA02636F
:103EE80013430268B1B9546A012D194901EA040162
:103EF80041EA0301836A5162936103D8436B23F05B
:103F08007F439362012380F86130002380F860309A
:103F1800184670BD0B2C05BF1C240E4E0E4E04FB1C
:103F2800010404BF246C43EA8443D469012D24EAC4
:103F3800060443EA0403D3614FF01C0303FB0101A9
:103F48008B6A1361DED84B6B23F07F431362D9E78A
:103F5800F0FFCC000F003FFF0F0033FF2DE9F74FB4
:103F68000023DFF8C8914FF0B0440A6832FA03F52D
:103F780002D103B0BDE8F08F4FF0010E0EFA03FE38
:103F88001EEA020200F0BC804E684FEA43084FF078
:103F9800030C06F003050CFA08FC6F1E6FEA0C0C04
:103FA800012F34D8876807EA0C0ACF6807FA08F7A0
:103FB80047EA0A078760476827EA0E0EC6F3001724
:103FC8009F4047EA0E074760C768022D07EA0C0EB4
:103FD8008F6807FA08F747EA0E07C76019D14FEA52
:103FE800D30A03F0070B4FF00F0E00EB8A0A4FEAD3
:103FF8008B0BDAF820700EFA0BFE27EA0E0E0F690B
:1040080007FA0BF747EA0E07CAF8207001E0032DFC
:10401800DAD1076805FA08F516F4403F07EA0C07F5
:1040280045EA070505606BD0D9F8F45023F003077B
:1040380003F0030C45F0020507F1B0474FEA8C0C7A
:10404800C9F8F45007F58067D9F8F45005F002056F
:104058000195019D0F25D7F808E005FA0CF52EEA21
:10406800050E314DA8424DD005F58065A8424BD0CC
:1040780005F58065A84249D005F58065A84247D076
:1040880005F58065A84245D005F58065A84243D06E
:1040980005F58065A84241D005F58065A8423FD066
:1040A80005F58065A8423DD005F58065A8420CBF9E
:1040B80009250A2505FA0CF516F4801F45EA0E05B0
:1040C800BD606FEA020725680CBF3D40154316F432
:1040D800001F256065680CBF3D40154316F4003F7E
:1040E8006560D4F884500CBF3D401543F603C4F80E
:1040F8008450D4F8805054BF3D401543C4F88050D4
:10410800013332E70025D5E70125D3E70225D1E7BA
:104118000325CFE70425CDE70525CBE70625C9E725
:104128000725C7E70825C5E70000025800440258DC
:104138000AB1816170470904FBE703689A6991072E
:1041480001D500229A629A69D20703D49A6942F08B
:1041580001029A617047000030B5039DC1F309015F
:1041680004682B43606843EA0243054A0B4342EA6A
:10417800555223F0004320EA02000343636030BD38
:10418800FF63FF0303682DE9F0419C6905460F466C
:10419800164614F010046FD000241022A046DA61ED
:1041A8002B689A69900661D4B8F1000F35D044F0B5
:1041B800040401202E68B369D90505D54FF480722F
:1041C80044F001040120F2615A0505D54FF48062DC
:1041D80044F008040120F2619B054FD54FF40073A9
:1041E80044F00204F3612846FFF7A7FF7368012033
:1041F80023F0FF7323F48B3323F4FF7323F00103BD
:1042080073606B6C23436B64202385F84130002373
:1042180085F8423085F8403032E07A1CC1D0FFF78B
:104228005DFC801BB84201D8002FB9D12B685968B2
:1042380095F842209869D2B200040AD5490408D4F6
:10424800202A06D05A6842F480425A60FFF746FC9A
:1042580006462B689B699B06A2D4FFF73FFC801B90
:104268001928F6D920244FF0010899E7B8F1000F72
:104278009DD12022DA619AE720469BE70028B2D137
:10428800BDE8F08170B504460D46164623689B6963
:104298009B0701D5002070BD324629462046FFF70E
:1042A80071FFC0B96A1CF1D0FFF718FC801BA84247
:1042B80001D8002DEAD123689B6913F00203E5D1E8
:1042C800626C84F8403042F020026264202284F854
:1042D800412084F842300120DDE72DE9F041069FB6
:1042E8000446884616461D462268936938EA030341
:1042F8000CBF01230023B34201D000201EE06B1C39
:10430800F3D0FFF7EBFBC01BA84201D8002DEBD17F
:1043180023689B6938EA03030CBF01230023B342D7
:10432800E2D1636C012043F020036364202384F806
:104338004130002384F8423084F84030BDE8F081F1
:1043480070B504460D46164623689B699B0601D541
:10435800002070BD324629462046FFF713FFB0B94A
:10436800FFF7BCFB801BA84201D8002DECD12368C5
:104378009B6913F02003E7D1626C84F8403042F067
:1043880020026264202284F8412084F8423001200F
:10439800DFE7704710B5044600284AD090F841304E
:1043A80003F0FF021BB980F84020FFF7F2FF242337
:1043B80084F8413023681A6822F001021A606268A2
:1043C80022F070621A619A6822F400429A60D4E975
:1043D8000221012924D142F400429A605A6800203F
:1043E80042F0007242F400425A60DA6822F4004255
:1043F800DA60D4E904210A43A16942EA0122DA60B9
:10440800D4E907210A431A601A6842F001021A60C7
:104418002023606484F84130206384F8420010BD92
:1044280042F4044202299A60D8D14FF400625A60DB
:10443800D4E70120F3E700002DE9F74F994690F8FB
:10444800413004460F46202B1646BDF834A0DDF84F
:10445800388040F0C9800C9B13B1BAF1000F06D127
:104468004FF400736364012003B0BDE8F08F90F847
:104478004030012B00F0B8804FF0010B80F840B0BD
:10448800FFF72CFB1923009005465A464FF40041CC
:104498002046FFF722FF03460028E4D122223946AE
:1044A800606384F84120402284F842200C9A6064BA
:1044B800204662624D4AA4F82AA000925FFA89F267
:1044C800FFF74AFE2A4641462046FFF7DBFE20BB9F
:1044D800B9F1010F236816D1F6B200224021204617
:1044E8009E6243460095FFF7F8FEB0B9638D9BB214
:1044F800FF2B3F4B15D8628D00934FF0007392B29B
:104508002285D2B212E0320A414620469A622A46F1
:10451800FFF7B8FE08B92368DEE7002384F84030C7
:10452800A1E7FF2200934FF0807322853946204689
:10453800FFF712FE43460022042120460095FFF7AC
:10454800CCFE00288FD123685A6A636A1A70636A9E
:10455800228D0133013A6362638D92B2013B228559
:104568009BB26385638D9BB2B3B1AAB943468021E0
:1045780020460095FFF7B1FE00287FF474AF638DE5
:104588009BB2FF2B28D9FF224FF080730090228521
:1045980039462046FFF7E0FD638D9BB2002BC9D159
:1045A8002A4641462046FFF7CBFE00287FF45BAF42
:1045B80023682021D9615A6822F0FF7222F48B32D5
:1045C80022F4FF7222F001025A6084F8411084F844
:1045D800400084F8420047E7628D4FF00073009076
:1045E80092B22285D2B2D3E702203DE700200080B4
:1045F8000024008090F841007047406C704710B567
:1046080090F84130202BDCB21DD190F84030012BBE
:1046180019D0242380F8413003681A6822F0010277
:104628001A601A6822F480521A601A6811431960D5
:104638001A6842F001021A60002380F8414080F8AD
:104648004030184610BD0220FCE710B590F8413004
:10465800202BDCB21CD190F84030012B18D0242339
:1046680080F8413003681A6822F001021A601A685B
:1046780022F4706242EA012119601A6842F00102CC
:104688001A60002380F8414080F84030184610BD79
:104698000220FCE7D2010068D1F800C084328318F8
:1046A8002DE9F043C6680CF101075D684FF0000E74
:1046B8004C68C6F30B4605F47045D1F818902644AB
:1046C8005D60C568C5F30B453D4445EA06455D6038
:1046D800C668CD68C6F30A062E449D6805F4704581
:1046E8009D608D68C7680135C7F30A073D4445EAF0
:1046F80006450E699D601D6925F007051D611E614F
:104708009D6991F8327091F83180C3F818E091F8FA
:10471800305045EA096545EA082545EA07459D619F
:104728005D6925F0FF055D614D695D61DD6925F411
:10473800E06525F00705DD61D1E907573D43DD61F7
:104748009D6A4D6AC3F828E09D62FEB1013E062EBF
:104758001ED8104DAD5DDE6AA4EB0C0406F0E02611
:104768006C43DE6207348E6AC96A6E4344EA0644C3
:10477800DC621C6B24F4FF6424F007041C631963D7
:10478800835843F001038350BDE8F0830425E2E732
:104798000125E0E77C8B00087047000038B5044627
:1047A800002863D090F8A13003F0FF021BB980F80D
:1047B800A020FFF7F1FF022384F8A13023689A694B
:1047C80022F070429A619969D4E901200243E068B5
:1047D80002432069024360690A4325499A619A683D
:1047E8000A409A609A6842EA0042A0690243E06976
:1047F8009A60DA680A40DA60DA6842EA0042206AB7
:104808000243606ADA601A690A401A611A6942EA60
:104818000042A06A02431A615A690A40E16A5A6171
:104828005A6942EA0142216B0A435A61DA6A94F8EA
:10483800350002F07F4294F83610DA62DD6A94F8A7
:1048480034202A4342EA0022002042EA0142DA6286
:104858005A6B42F006025A639A6942F001029A6161
:104868000123C4F8A40084F8A13038BD0120FCE776
:1048780000F800F02DE9F04190F8A03006460F4608
:104888009446012B4FF002001FD034244FF001084A
:104898000D4686F8A10004FB026486F8A08038342F
:1048A8000FCD0FC40FCD0FC40FCD0FC42B683046EA
:1048B800624639462360FFF7EDFE33680020C3F8EF
:1048C800248086F8A18086F8A000BDE8F08170B544
:1048D80090F8A0300446012B4FF0020315D080F861
:1048E800A13034230126534380F8A060C518E96538
:1048F80003F138010144FFF7CDFE236800205E6212
:1049080084F8A16084F8A00070BD1846FCE738B5AB
:104918000446FFF7E3F80546002C61D0002322681F
:1049280084F83C30022384F83D30D36823F0010337
:10493800D3602368DA68D20748D4D4E903210A434C
:10494800DA60D4E905210A43E1690A43216A0A4386
:10495800616A0A43E16A0A43216B0A43A1680A4370
:10496800A16A013942EA81426168B1F1804F1A6156
:1049780003D11A6942F040421A6100225A61626BFF
:10498800002A04DA5869524240F48020586192B2F1
:104998001A62A26B002A25DA5869524240F40020B4
:1049A8005861186A40EA0242B1F1804F1A624FF02A
:1049B800000219D0C9B299625A6200200123A26686
:1049C800626684F83D30C4E9172238BDFFF786F8DF
:1049D800401B0528ADD94023A366032384F83D3046
:1049E8000120F2E7186ADDE79A62E5E7D8B10268C4
:1049F8001F21D36823F00103D3600023D360136120
:104A080053619361D3611362536293621363536377
:104A180051608366436680F83D3080F83C30C0E9D9
:104A280017331846704701207047000038B5104CFE
:104A3800E36813F0040FE36805D103F00703181ABD
:104A480018BF012038BD23F007031843E060FFF7C3
:104A580045F8054663689B0401D50020F2E7FFF797
:104A68003DF8401BB0F57A7FF4D90120EAE700BF92
:104A780000480258F8B5044608B901208CE00368DC
:104A8800D8075ED42368990700F1AC802368DA065A
:104A980027D59C4A1369916A03F03803082B07D07D
:104AA800182B40F0038101F00303012B40F0FE8036
:104AB8001368DB0502D5E369802BDED1FFF714F814
:104AC80041F20303216A98428E4B00F2E8805A684B
:104AD800202922F0F8420CBF42F0804242EA81626B
:104AE8005A602368190700F1228123689A0600F1A9
:104AF800438123685D071ED5834D2B6843F480737B
:104B08002B60FEF7EBFF06462B68DA0540F159816A
:104B1800A3687C4D012B40F05B812B6F43F00103B0
:104B28002B6741F28837FEF7D9FF764E0546336F7B
:104B38009B0740F17381606A002840F0768100206D
:104B48002AE0704A1369916A03F03803102B05D0E4
:104B5800182B0AD101F00303022B06D113689A031C
:104B680090D56368002B8DD187E76368654DB3F5F1
:104B7800803F12D12B6843F480332B60FEF7AEFFE1
:104B8800604E054633689B033FF57CAFFEF7A6FFF2
:104B9800401B6428F6D90320F8BDA3B92B6823F479
:104BA80080332B602B6823F480232B60FEF796FF5D
:104BB80006462B689F037FF565AFFEF78FFF801BC6
:104BC8006428F6D9E7E7B3F5A02F2B6803D143F49F
:104BD80080232B60CEE723F480332B602B6823F4EB
:104BE8008023CAE74749E2680B69886A13F03803EB
:104BF80003D0182B2BD1800729D10B685B0702D56E
:104C0800002A3FF43AAF3F4D2B6823F019031343B2
:104C18002B60FEF763FF06462B685F0711D5FEF78A
:104C280063FF41F20303226998426B6822D823F498
:104C38007C33402A0CBF43F4003343EA02336B60F1
:104C480024E7FEF74BFF801B0228E5D9A3E72D4D8B
:104C58002B68A2B123F0190313432B60FEF73EFF24
:104C680006462B685807DAD4FEF738FF801B02285F
:104C7800F7D990E723F0FE4343EA0263DFE723F026
:104C880001032B60FEF72AFF06462B6859077FF5BC
:104C9800FDAEFEF723FF801B0228F6D97BE7DA6812
:104CA80022F07C5242EA0162DA601AE7E369154DA4
:104CB80063B32B6843F080032B60FEF70FFF0646B3
:104CC8002B68DF0511D5FEF70FFF41F20303226AB7
:104CD800984210D86B68202A23F0F8430CBF43F0A1
:104CE800804343EA82636B60FBE6FEF7F7FE801BB6
:104CF8000228E5D94FE7EB6823F07C5343EA0263C7
:104D0800EB60EEE600440258004802582B6823F096
:104D180080032B60FEF7E2FE06462B68D8057FF578
:104D2800E0AEFEF7DBFE801B0228F6D933E76369A5
:104D3800A54D83B16B6F43F001036B67FEF7CEFEA1
:104D480006466B6F9B073FF5D0AEFEF7C7FE801B8C
:104D58000228F6D91FE76B6F23F001036B67FEF794
:104D6800BDFE06466B6F9F077FF5BFAEFEF7B6FE2A
:104D7800801B0228F6D90EE7A369934D83B12B68EF
:104D880043F480532B60FEF7A9FE06462B6898046F
:104D98003FF5AFAEFEF7A2FE801B0228F6D9FAE671
:104DA8002B6823F480532B60FEF798FE06462B6889
:104DB80099047FF59EAEFEF791FE801B0228F6D976
:104DC800E9E6FEF78BFE801B64287FF69DAEE2E6DF
:104DD800B3B92B6F41F2883723F001032B672B6F90
:104DE80023F004032B67FEF779FE06462B6F98071E
:104DF8007FF5A1AEFEF772FE801BB842F6D9CAE66F
:104E0800052B2B6F03D143F004032B6785E623F0B2
:104E180001032B672B6F23F0040381E6FEF75EFE88
:104E2800401BB8427FF683AEB5E6674D2B6903F0A9
:104E38003803182B7AD02B68022823F080732B6054
:104E480067D1FEF74BFE06462B6899015BD4AB6A27
:104E5800A26A23F47C7323F003031343E26A43EA50
:104E68000213AB62636BA26B013B013A5B02120453
:104E78009BB202F4FE021343226B013AC2F308020A
:104E88001343E26B013A120602F0FE4213432B630E
:104E9800EB6A23F00103EB626B6BA26C23F47F4394
:104EA80023F0F80343EAC2036B63EB6A226C23F036
:104EB8000C031343EB62EB6A626C23F002031343A7
:104EC800EB62EB6A43F48033EB62EB6A43F4003342
:104ED800EB62EB6A43F48023EB62EB6A43F0010375
:104EE800EB622B6843F080732B60FEF7F7FD364DBD
:104EF80004462B689A013FF522AEFEF7EFFD001B32
:104F08000228F6D947E6FEF7E9FD801B02289BD95F
:104F180041E6FEF7E3FD04462B689B017FF50FAEE3
:104F2800FEF7DCFD001B0228F6D934E60128AA6A40
:104F38002B6B3FF431AE02F00301A06A81427FF48B
:104F48009CADC2F30512E16A8A427FF496AD226BEA
:104F5800C3F30801013A91427FF48FAD626BC3F34A
:104F68004621013A91427FF488ADA26BC3F3064112
:104F7800013A91427FF481ADE26BC3F30663013AD3
:104F880093427FF47AAD6B6BA26CC3F3CC039A4265
:104F98003FF4D5AD0C4DEB6A23F00103EB62FEF74D
:104FA8009DFD0646FEF79AFDB042FBD06B6BA26CE6
:104FB80023F47F4323F0F80343EAC2036B63EB6AED
:104FC80043F00103EB62BAE500440258494B1A6901
:104FD80002F03802102A30B500F08880182A0CD068
:104FE800002A40F085801A68434812F0200F03D049
:104FF8001B68C3F3C103D84030BD996A9D6ADC6A57
:1050080015F47C7FC5F305105A6BF5D0C2F3CC02BA
:1050180004F0010401F0030107EE900A6243B7EEC1
:10502800006A0129B8EEE77A06EE902AFAEEE96AF4
:105038004ED002293ED000294AD11A68920627D5B7
:1050480019682D4AC1F3C1011B6BCA40C3F3080399
:1050580007EE902AF8EEE75AC5EE877A07EE103A7F
:10506800B8EEC77A37EE267A37EE067A67EE877A91
:10507800204B1B6BC3F34623013307EE103AF8EEBF
:10508800C76A87EEA67AFCEEC77A17EE900AB3E7EE
:105098001B6BC3F3080307EE903AF8EEE77A77EE56
:1050A800A67A77EE867A9FED156AC6EE076A67EEEE
:1050B800A67ADDE71B6BC3F3080307EE903AF8EE18
:1050C800E77A77EEA67A77EE867A9FED0D6AECE7B7
:1050D8001B6BC3F3080307EE903AF8EEE77A77EE16
:1050E800A67A77EE867A9FED076ADEE7064883E7B9
:1050F800064881E7004402580090D0030024744C0D
:1051080020BCBE4B0024744A40787D0100093D0054
:105118002DE9F0410D46044610B90120BDE8F081A3
:10512800884A136803F00F038B42C0F0938023680A
:105138005F0700F19B801E070BD583496069CA6928
:1051480002F07002904204D9CA6922F07002024348
:10515800CA61D8060BD57C49A069CA6902F4E06225
:10516800904204D9CA6922F4E0620243CA619906EE
:105178000BD57549E0690A6A02F07002904204D9B9
:105188000A6A22F0700202430A629A070BD56E4936
:10519800E0688A6902F00F02904204D98A6922F015
:1051A8000F0202438A61DF076ED423689E0700F16D
:1051B800A18064490A6802F00F02AA4200F2A8809E
:1051C800580700F1B18019070BD55F496069CA69B2
:1051D80002F07002904204D2CA6922F070020243BF
:1051E800CA61DA060BD55849A069CA6902F4E062B7
:1051F800904204D2CA6922F4E0620243CA619B0663
:105208000BD5514AE169136A03F07003994204D23D
:10521800136A23F070030B431362FFF7D7FE4A4962
:105228004A4A8B69C3F30323D35C03F01F03D840B6
:105238008B6903F00F03D35C454A03F01F0320FA80
:1052480003F31360434B1860434BBDE8F041186803
:10525800FEF7E4BB136823F00F030B4313601368D6
:1052680003F00F038B427FF458AF60E7364920699B
:105278008A6902F0700290427FF65DAF8A6922F077
:10528800700202438A6156E72F4BA1689A6922F49B
:1052980070620A439A6161681A6802291DD112F482
:1052A800003F3FF43AAF1A6941F28838264F22F09E
:1052B80007020A431A61FEF711FC06463B69626859
:1052C80003F03803B3EBC20F3FF46FAFFEF706FCF1
:1052D800801B4045F2D9032020E7032902D112F0B0
:1052E800007FDEE7012902D112F4807FD9E712F0AE
:1052F800040FD6E71449E0688A6902F00F02904269
:10530800BFF457AF8A6922F00F0202438A6150E75F
:105318000A6822F00F022A430A600A6802F00F02A4
:10532800AA427FF4FAAE4BE7074920698A6902F07E
:1053380070029042BFF447AF8A6922F070020243BC
:105348008A6140E70020005200440258308B000870
:10535800300000242C0000243800002410B50C4C28
:10536800FFF734FE0B49A369C3F30323CB5C03F0B7
:105378001F0320FA03F2A36903F00F03CB5C03F0C9
:105388001F0322FA03F0044B1860044B1A6010BD87
:1053980000440258308B0008300000242C00002400
:1053A80008B5FFF7DBFF054B054ADB69C3F30223AA
:1053B800D35C03F01F03D84008BD00BF0044025867
:1053C800308B0008F8B53A4C06460D46A36A03F040
:1053D8000303032B69D0236823F080632360FEF75F
:1053E8007DFB074623681A014BD4A36A326823F46D
:1053F8007C3343EA0233A362B368F268013B013AA3
:105408005B0212049BB202F4FE0213437268013A73
:10541800C2F3080213433269013A120602F0FE424F
:105428001343A363E36A726923F0C0031343E3627F
:10543800E36AB26923F020031343E362E36A23F0CB
:105448001003E362E36BF26923F47F4323F0F8036C
:1054580043EAC203E363E36A43F01003E362E36AE7
:10546800B5B943F40023E362114C236843F0806329
:105478002360FEF733FB054623681B010FD5002088
:1054880005E0FEF72BFBC01B0228ABD90320F8BDB3
:10549800012D0CBF43F4801343F40013E3E7FEF738
:1054A8001DFB401B0228E7D9F0E70120EFE700BF0A
:1054B80000440258F8B53A4C06460D46A36A03F074
:1054C8000303032B69D0236823F080532360FEF77E
:1054D80005FB074623689A004BD4A36A326823F079
:1054E8007C7343EA0253A362B368F268013B013A52
:1054F8005B0212049BB202F4FE0213437268013A83
:10550800C2F3080213433269013A120602F0FE425E
:1055180013432364E36A726923F440631343E36229
:10552800E36AB26923F400731343E362E36A23F482
:105538008073E362636CF26923F47F4323F0F8031A
:1055480043EAC2036364E36A43F48073E362E36A91
:10555800B5B943F48003E362114C236843F08053E8
:105568002360FEF7BBFA054623689B000FD5002091
:1055780005E0FEF7B3FAC01B0228ABD90320F8BD3B
:10558800012D0CBF43F4000343F08073E3E7FEF7FB
:10559800A5FA401B0228E7D9F0E70120EFE700BF92
:1055A800004402582DE9F84303680546180103F042
:1055B800006609D5AB6EB3F5001F2FD013D8F3B131
:1055C800B3F5801F21D001262B68D90540F1ED8065
:1055D800AB6D042B00F2E880DFE813F026002D0005
:1055E800E0002B002B00B3F5401FECD1A94A0026A0
:1055F800A96E136D23F440130B431365E4E7A54A22
:10560800D36A43F40033D362F0E7022105F10800BE
:10561800FFF7D8FE06460028D6D1E7E7022105F1B4
:105628002800FFF747FFF5E79A4AD36A43F40033A7
:10563800D362344605E0002105F10800FFF7C2FEF9
:105648000446002C40F0B380924AA96D136D23F0F4
:1056580007030B4313652B689A050DD5EB6D802B5B
:1056680000F0C38000F2A580002B00F0B180402B31
:1056780000F0B480012634462B685B0510D5D5F8B8
:10568800A830B3F5800F00F0D68000F2B680002B6A
:1056980000F0C480B3F5001F00F0C6800126344630
:1056A8002B681F0510D5D5F8AC30B3F1007F00F09A
:1056B800E88000F2C880002B00F0D680B3F1807F2C
:1056C80000F0D880012634462B6898010DD5EB6C84
:1056D800202B00F0F38000F2DF80002B00F0DF8049
:1056E800102B00F0E580012634462B68D9040FD52D
:1056F8002B6EB3F5005F00F0078100F2E880002B05
:1057080000F0F580B3F5805F00F0F780012634469D
:105718002B689A040FD56B6EB3F5003F00F0158126
:1057280000F2FA80002B00F00081B3F5803F00F012
:105738000581012634462B685B0410D5D5F8B030B6
:10574800B3F1005F00F0238100F20781002B00F025
:105758000D81B3F1805F00F01381012634462B6878
:105768001F040DD52B6FB3F1805F00F01881B3F1E2
:10577800005F00F02281002B00F0168101263446DC
:105788002B68D80140F13081AB6C032B00F271819A
:10579800DFE813F021011C0168012101002105F156
:1057A8002800FFF787FE4BE70126344653E72646D5
:1057B80051E7C02B03D0B3F5807F7FF45BAFD4B93A
:1057C800344AE96D136D23F4E0730B43136553E713
:1057D800304AD36A43F40033D362F0E7002105F17D
:1057E8000800FFF7EFFD0446E9E7002105F128006E
:1057F800FFF760FEF7E726463EE7B3F5C00F03D094
:10580800B3F5000F7FF44AAFDCB9224AD5F8A810E7
:10581800936D23F460030B43936541E71D4AD36AF4
:1058280043F40033D362EFE7002105F10800FFF7E6
:10583800C9FD0446E8E7002105F12800FFF73AFE14
:10584800F7E726462CE7B3F1407F03D0B3F1806F2A
:105858007FF438AFDCB90F4AD5F8AC10936D23F05C
:10586800E0630B4393652FE70A4AD36A43F4003396
:10587800D362EFE7002105F10800FFF7A3FD044616
:10588800E8E7002105F12800FFF714FEF7E72646B0
:105898001AE700BF00440258302B7FF424AFA4B9A4
:1058A800A04AE96CD36C23F030030B43D3641CE7A4
:1058B8009C4AD36A43F40033D362F0E7022105F12E
:1058C8000800FFF77FFD0446E9E726460DE7B3F534
:1058D800405F03D0B3F5804F7FF418AFD4B9914A35
:1058E800296E136D23F4E0430B43136510E78D4ACB
:1058F800D36A43F40033D362F0E7002105F10800CE
:10590800FFF760FD0446E9E7002105F12800FFF7ED
:10591800D1FDF7E72646FBE623F48032B2F5802F67
:1059280003D0B3F5403F7FF404AFA4B97D4A696E54
:10593800136D23F4E0230B431365FCE6012105F105
:105948000800FFF73FFD0446EFE7012105F12800B5
:10595800FFF7B0FDF7E72646EDE623F08052B2F1F7
:10596800804F03D0B3F1405F7FF4F7AEACB96D4A16
:10597800D5F8B010936D23F0E0430B439365EEE642
:10598800012105F10800FFF71DFD0446EEE701219E
:1059980005F12800FFF78EFDF7E72646DFE6614AA6
:1059A800D36A43F40033D36274B95E4A296F136D26
:1059B80023F040530B431365E2E6012105F108008B
:1059C800FFF700FD0446EFE72646D9E6554AD36AB5
:1059D80043F40033D362002C4ED1524AA96CD36CE5
:1059E80023F003030B43D3642B6859024ED54E4F63
:1059F8003B6843F480733B60FEF770F880463B6871
:105A0800DA053BD5002C6DD1464BD5F8B4001A6F9A
:105A1800424012F4407F0BD01A6F196F22F4407283
:105A280041F480311967196F21F4803119671A67B9
:105A3800B0F5807F41D0D5F8B4303A4903F44072CC
:105A4800B2F5407F4AD10869384A20F47C5002EA0E
:105A5800131202430A61C3F30B03324A116F0B435B
:105A6800136713E0022105F10800FFF7ABFC0446B9
:105A7800B1E701263446B7E72646B5E7FEF72EF824
:105A8800A0EB08006428BAD9032634462B68D80747
:105A980008D5EB6F102B3DD026D85BB3082B32D03E
:105AA800012634462B68990750D5AB6F052B63D870
:105AB800DFE803F0443E5C444444FEF70FF8DFF8A7
:105AC8006480074641F28839D8F870309B07B2D411
